{
  "contractName": "BallotFactory",
  "abi": [
    {
      "anonymous": false,
      "inputs": [
        {
          "indexed": false,
          "internalType": "address",
          "name": "_address",
          "type": "address"
        }
      ],
      "name": "deployedContract",
      "type": "event"
    },
    {
      "inputs": [
        {
          "internalType": "uint256",
          "name": "",
          "type": "uint256"
        }
      ],
      "name": "deployedBallots",
      "outputs": [
        {
          "internalType": "address",
          "name": "",
          "type": "address"
        }
      ],
      "stateMutability": "view",
      "type": "function",
      "constant": true
    },
    {
      "inputs": [
        {
          "internalType": "string",
          "name": "_details",
          "type": "string"
        }
      ],
      "name": "createNewBallot",
      "outputs": [],
      "stateMutability": "nonpayable",
      "type": "function"
    },
    {
      "inputs": [],
      "name": "getBallots",
      "outputs": [
        {
          "internalType": "address[]",
          "name": "",
          "type": "address[]"
        }
      ],
      "stateMutability": "view",
      "type": "function",
      "constant": true
    }
  ],
  "bytecode": "0x608060405234801561001057600080fd5b50612478806100206000396000f3fe608060405234801561001057600080fd5b50600436106100415760003560e01c806329df0dc414610046578063cdf74c3e14610101578063eb87c6dc14610159575b600080fd5b6100ff6004803603602081101561005c57600080fd5b810190808035906020019064010000000081111561007957600080fd5b82018360208201111561008b57600080fd5b803590602001918460018302840111640100000000831117156100ad57600080fd5b91908080601f016020809104026020016040519081016040528093929190818152602001838380828437600081840152601f19601f8201169050808301925050505050505091929192905050506101b8565b005b61012d6004803603602081101561011757600080fd5b810190808035906020019092919050505061032d565b604051808273ffffffffffffffffffffffffffffffffffffffff16815260200191505060405180910390f35b61016161036c565b6040518080602001828103825283818151815260200191508051906020019060200280838360005b838110156101a4578082015181840152602081019050610189565b505050509050019250505060405180910390f35b600081336040516101c8906103fa565b80806020018373ffffffffffffffffffffffffffffffffffffffff168152602001828103825284818151815260200191508051906020019080838360005b83811015610221578082015181840152602081019050610206565b50505050905090810190601f16801561024e5780820380516001836020036101000a031916815260200191505b509350505050604051809103906000f080158015610270573d6000803e3d6000fd5b50905060008190506000819080600181540180825580915050600190039060005260206000200160009091909190916101000a81548173ffffffffffffffffffffffffffffffffffffffff021916908373ffffffffffffffffffffffffffffffffffffffff1602179055507fc2295c21597e893fb3ac056c24bc384f0ff3796f36a6513a249e8178c5dbb12f81604051808273ffffffffffffffffffffffffffffffffffffffff16815260200191505060405180910390a1505050565b6000818154811061033d57600080fd5b906000526020600020016000915054906101000a900473ffffffffffffffffffffffffffffffffffffffff1681565b606060008054806020026020016040519081016040528092919081815260200182805480156103f057602002820191906000526020600020905b8160009054906101000a900473ffffffffffffffffffffffffffffffffffffffff1673ffffffffffffffffffffffffffffffffffffffff16815260200190600101908083116103a6575b5050505050905090565b61203b806104088339019056fe60806040526000600360006101000a81548163ffffffff021916908363ffffffff1602179055506000600360046101000a81548163ffffffff021916908363ffffffff1602179055503480156200005557600080fd5b506040516200203b3803806200203b833981810160405260408110156200007b57600080fd5b81019080805160405193929190846401000000008211156200009c57600080fd5b83820191506020820185811115620000b357600080fd5b8251866001820283011164010000000082111715620000d157600080fd5b8083526020830192505050908051906020019080838360005b8381101562000107578082015181840152602081019050620000ea565b50505050905090810190601f168015620001355780820380516001836020036101000a031916815260200191505b506040526020018051906020019092919050505080600360086101000a81548173ffffffffffffffffffffffffffffffffffffffff021916908373ffffffffffffffffffffffffffffffffffffffff1602179055508160049080519060200190620001a2929190620001d0565b506000600560006101000a81548160ff02191690836003811115620001c357fe5b0217905550505062000286565b828054600181600116156101000203166002900490600052602060002090601f01602090048101928262000208576000855562000254565b82601f106200022357805160ff191683800117855562000254565b8280016001018555821562000254579182015b828111156200025357825182559160200191906001019062000236565b5b50905062000263919062000267565b5090565b5b808211156200028257600081600090555060010162000268565b5090565b611da580620002966000396000f3fe608060405234801561001057600080fd5b50600436106100ea5760003560e01c80639127566a1161008c578063d9e95a9811610066578063d9e95a98146104cc578063dca97183146105a7578063e23dbd54146105db578063f6fd7fde146105e5576100ea565b80639127566a146103af578063ad72202b14610432578063b92239461461043c576100ea565b80633e858923116100c85780633e858923146102985780634c0a6af0146102c65780635f5300ff146102d05780635fa520bb146102f4576100ea565b80630d15fd77146100ef57806322f25e401461011357806329f4ecb81461026f575b600080fd5b6100f7610699565b604051808263ffffffff16815260200191505060405180910390f35b61026d6004803603606081101561012957600080fd5b810190808035906020019064010000000081111561014657600080fd5b82018360208201111561015857600080fd5b8035906020019184600183028401116401000000008311171561017a57600080fd5b91908080601f016020809104026020016040519081016040528093929190818152602001838380828437600081840152601f19601f820116905080830192505050505050509192919290803590602001906401000000008111156101dd57600080fd5b8201836020820111156101ef57600080fd5b8035906020019184600183028401116401000000008311171561021157600080fd5b91908080601f016020809104026020016040519081016040528093929190818152602001838380828437600081840152601f19601f820116905080830192505050505050509192919290803590602001909291905050506106af565b005b610277610aaf565b6040518082600381111561028757fe5b815260200191505060405180910390f35b6102c4600480360360208110156102ae57600080fd5b8101908080359060200190929190505050610ac2565b005b6102ce610eac565b005b6102d8610fb7565b604051808263ffffffff16815260200191505060405180910390f35b6103ad6004803603602081101561030a57600080fd5b810190808035906020019064010000000081111561032757600080fd5b82018360208201111561033957600080fd5b8035906020019184600183028401116401000000008311171561035b57600080fd5b91908080601f016020809104026020016040519081016040528093929190818152602001838380828437600081840152601f19601f820116905080830192505050505050509192919290505050610fcd565b005b6103b7611187565b6040518080602001828103825283818151815260200191508051906020019080838360005b838110156103f75780820151818401526020810190506103dc565b50505050905090810190601f1680156104245780820380516001836020036101000a031916815260200191505b509250505060405180910390f35b61043a611225565b005b610444611330565b60405180806020018363ffffffff168152602001828103825284818151815260200191508051906020019080838360005b83811015610490578082015181840152602081019050610475565b50505050905090810190601f1680156104bd5780820380516001836020036101000a031916815260200191505b50935050505060405180910390f35b6105a5600480360360408110156104e257600080fd5b81019080803573ffffffffffffffffffffffffffffffffffffffff1690602001909291908035906020019064010000000081111561051f57600080fd5b82018360208201111561053157600080fd5b8035906020019184600183028401116401000000008311171561055357600080fd5b91908080601f016020809104026020016040519081016040528093929190818152602001838380828437600081840152601f19601f8201169050808301925050505050505091929192905050506115ed565b005b6105af61195b565b604051808273ffffffffffffffffffffffffffffffffffffffff16815260200191505060405180910390f35b6105e3611981565b005b610611600480360360208110156105fb57600080fd5b8101908080359060200190929190505050611a7d565b60405180806020018363ffffffff168152602001828103825284818151815260200191508051906020019080838360005b8381101561065d578082015181840152602081019050610642565b50505050905090810190601f16801561068a5780820380516001836020036101000a031916815260200191505b50935050505060405180910390f35b600360049054906101000a900463ffffffff1681565b60028060038111156106bd57fe5b600560009054906101000a900460ff1660038111156106d857fe5b146106e257600080fd5b3373ffffffffffffffffffffffffffffffffffffffff1660008084815260200190815260200160002060000160009054906101000a900473ffffffffffffffffffffffffffffffffffffffff1673ffffffffffffffffffffffffffffffffffffffff161461079b576040517f08c379a0000000000000000000000000000000000000000000000000000000008152600401808060200182810382526026815260200180611d4a6026913960400191505060405180910390fd5b600060018111156107a857fe5b60008084815260200190815260200160002060000160149054906101000a900460ff1660018111156107d657fe5b14610849576040517f08c379a000000000000000000000000000000000000000000000000000000000815260040180806020018281038252601e8152602001807f5468697320766f74652077617320616c72656164792072657665616c6564000081525060200191505060405180910390fd5b81836040516020018082805190602001908083835b60208310610881578051825260208201915060208101905060208303925061085e565b6001836020036101000a0380198251168184511680821785525050505050509050019150506040516020818303038152906040528051906020012014610912576040517f08c379a0000000000000000000000000000000000000000000000000000000008152600401808060200182810382526021815260200180611cd56021913960400191505060405180910390fd5b6060849050606084905060005b82518160ff161015610a0657818160ff168151811061093a57fe5b602001015160f81c60f81b7effffffffffffffffffffffffffffffffffffffffffffffffffffffffffffff1916838260ff168151811061097657fe5b602001015160f81c60f81b7effffffffffffffffffffffffffffffffffffffffffffffffffffffffffffff1916146109f9576040517f08c379a000000000000000000000000000000000000000000000000000000000815260040180806020018281038252602a815260200180611d20602a913960400191505060405180910390fd5b808060010191505061091f565b506000610a1287611b59565b9050600160028260ff1681548110610a2657fe5b906000526020600020906002020160010160008282829054906101000a900463ffffffff160192506101000a81548163ffffffff021916908363ffffffff160217905550600180811115610a7657fe5b60008087815260200190815260200160002060000160149054906101000a900460ff166001811115610aa457fe5b505050505050505050565b600560009054906101000a900460ff1681565b6001806003811115610ad057fe5b600560009054906101000a900460ff166003811115610aeb57fe5b14610af557600080fd5b6000600160003373ffffffffffffffffffffffffffffffffffffffff1673ffffffffffffffffffffffffffffffffffffffff16815260200190815260200160002090506000816000018054600181600116156101000203166002900490501415610bc7576040517f08c379a00000000000000000000000000000000000000000000000000000000081526004018080602001828103825260168152602001807f41646472657373206e6f7420726567697374657265640000000000000000000081525060200191505060405180910390fd5b8060010160009054906101000a900460ff1615610c4c576040517f08c379a000000000000000000000000000000000000000000000000000000000815260040180806020018281038252600e8152602001807f416c726561647920766f7465642e00000000000000000000000000000000000081525060200191505060405180910390fd5b600073ffffffffffffffffffffffffffffffffffffffff1660008085815260200190815260200160002060000160009054906101000a900473ffffffffffffffffffffffffffffffffffffffff1673ffffffffffffffffffffffffffffffffffffffff1614610d06576040517f08c379a000000000000000000000000000000000000000000000000000000000815260040180806020018281038252602a815260200180611cf6602a913960400191505060405180910390fd5b610d0e611bd2565b33816000019073ffffffffffffffffffffffffffffffffffffffff16908173ffffffffffffffffffffffffffffffffffffffff1681525050600081602001906001811115610d5857fe5b90816001811115610d6557fe5b815250508060008086815260200190815260200160002060008201518160000160006101000a81548173ffffffffffffffffffffffffffffffffffffffff021916908373ffffffffffffffffffffffffffffffffffffffff16021790555060208201518160000160146101000a81548160ff02191690836001811115610de757fe5b021790555090505060018260010160006101000a81548160ff0219169083151502179055506003600481819054906101000a900463ffffffff168092919060010191906101000a81548163ffffffff021916908363ffffffff160217905550507f31e6286c8ecb5d48a59917fa389f0c011812ddd8330b8c71c185d21b19b846fa8460405180807f566f746520636f6d6d697474656420776974682068617368200000000000000081525060200182815260200191505060405180910390a150505050565b600360089054906101000a900473ffffffffffffffffffffffffffffffffffffffff1673ffffffffffffffffffffffffffffffffffffffff163373ffffffffffffffffffffffffffffffffffffffff1614610f0657600080fd5b6000806003811115610f1457fe5b600560009054906101000a900460ff166003811115610f2f57fe5b14610f3957600080fd5b6001600560006101000a81548160ff02191690836003811115610f5857fe5b02179055507f0d6a0e72f1f57a45518382c31c3d7d499a3e45d95fb4caddb0372bd448e7e5b060405180807f566f74696e672068617320737461727465640000000000000000000000000000815250602001905060405180910390a150565b600360009054906101000a900463ffffffff1681565b600360089054906101000a900473ffffffffffffffffffffffffffffffffffffffff1673ffffffffffffffffffffffffffffffffffffffff163373ffffffffffffffffffffffffffffffffffffffff161461102757600080fd5b600080600381111561103557fe5b600560009054906101000a900460ff16600381111561105057fe5b1461105a57600080fd5b60026040518060400160405280848152602001600063ffffffff16815250908060018154018082558091505060019003906000526020600020906002020160009091909190915060008201518160000190805190602001906110bd929190611c0d565b5060208201518160010160006101000a81548163ffffffff021916908363ffffffff16021790555050507fba6b30eb3b7d3bc2fb7b79cfbce81c0bac85268f4fa985a5c5aa6f141fbf1465826040518080602001828103825283818151815260200191508051906020019080838360005b8381101561114957808201518184015260208101905061112e565b50505050905090810190601f1680156111765780820380516001836020036101000a031916815260200191505b509250505060405180910390a15050565b60048054600181600116156101000203166002900480601f01602080910402602001604051908101604052809291908181526020018280546001816001161561010002031660029004801561121d5780601f106111f25761010080835404028352916020019161121d565b820191906000526020600020905b81548152906001019060200180831161120057829003601f168201915b505050505081565b600360089054906101000a900473ffffffffffffffffffffffffffffffffffffffff1673ffffffffffffffffffffffffffffffffffffffff163373ffffffffffffffffffffffffffffffffffffffff161461127f57600080fd5b600180600381111561128d57fe5b600560009054906101000a900460ff1660038111156112a857fe5b146112b257600080fd5b6002600560006101000a81548160ff021916908360038111156112d157fe5b02179055507f8e8f5aee9431ee3cdd3482144e1a06dbb60dfca779dbb69ff38677931f948ff360405180807f506c656173652072657665616c20796f757220766f746573206e6f7700000000815250602001905060405180910390a150565b60606000600360089054906101000a900473ffffffffffffffffffffffffffffffffffffffff1673ffffffffffffffffffffffffffffffffffffffff163373ffffffffffffffffffffffffffffffffffffffff161461138e57600080fd5b600280600381111561139c57fe5b600560009054906101000a900460ff1660038111156113b757fe5b146113c157600080fd5b60008060005b6002805490508110156114585782600282815481106113e257fe5b906000526020600020906002020160010160009054906101000a900463ffffffff1663ffffffff16111561144b576002818154811061141d57fe5b906000526020600020906002020160010160009054906101000a900463ffffffff1663ffffffff1692508091505b80806001019150506113c7565b506002818154811061146657fe5b90600052602060002090600202016000018054600181600116156101000203166002900480601f01602080910402602001604051908101604052809291908181526020018280546001816001161561010002031660029004801561150b5780601f106114e05761010080835404028352916020019161150b565b820191906000526020600020905b8154815290600101906020018083116114ee57829003601f168201915b505050505094506003600560006101000a81548160ff0219169083600381111561153157fe5b02179055507f2a7e354b64c657742b73fe53ae41272be152db4a043264298a57cc6a9f7c4463858360405180806020018363ffffffff168152602001828103825284818151815260200191508051906020019080838360005b838110156115a557808201518184015260208101905061158a565b50505050905090810190601f1680156115d25780820380516001836020036101000a031916815260200191505b50935050505060405180910390a18482945094505050509091565b600360089054906101000a900473ffffffffffffffffffffffffffffffffffffffff1673ffffffffffffffffffffffffffffffffffffffff163373ffffffffffffffffffffffffffffffffffffffff161461164757600080fd5b600080600381111561165557fe5b600560009054906101000a900460ff16600381111561167057fe5b1461167a57600080fd5b6000825114156116f2576040517f08c379a000000000000000000000000000000000000000000000000000000000815260040180806020018281038252600d8152602001807f456e7465722061206e616d65210000000000000000000000000000000000000081525060200191505060405180910390fd5b6000600160008573ffffffffffffffffffffffffffffffffffffffff1673ffffffffffffffffffffffffffffffffffffffff168152602001908152602001600020600001805460018160011615610100020316600290049050146117be576040517f08c379a00000000000000000000000000000000000000000000000000000000081526004018080602001828103825260198152602001807f566f74657220616c72656164792072656769737465726564210000000000000081525060200191505060405180910390fd5b6117c6611c9b565b828160000181905250600081602001901515908115158152505080600160008673ffffffffffffffffffffffffffffffffffffffff1673ffffffffffffffffffffffffffffffffffffffff168152602001908152602001600020600082015181600001908051906020019061183c929190611c0d565b5060208201518160010160006101000a81548160ff0219169083151502179055509050506003600081819054906101000a900463ffffffff168092919060010191906101000a81548163ffffffff021916908363ffffffff160217905550507f7f965c9bb469cafa2ed0036125936e24650cefc1e5d7b9632fe7f27af4a70b378484604051808373ffffffffffffffffffffffffffffffffffffffff16815260200180602001828103825283818151815260200191508051906020019080838360005b8381101561191a5780820151818401526020810190506118ff565b50505050905090810190601f1680156119475780820380516001836020036101000a031916815260200191505b50935050505060405180910390a150505050565b600360089054906101000a900473ffffffffffffffffffffffffffffffffffffffff1681565b60005b6002805490508160ff161015611a7a577ff589124bd4030e8729018c2a93187ab134a3863740c75a6459d9aa9106aea02e60028260ff16815481106119c557fe5b90600052602060002090600202016000016040518080602001828103825283818154600181600116156101000203166002900481526020019150805460018160011615610100020316600290048015611a5f5780601f10611a3457610100808354040283529160200191611a5f565b820191906000526020600020905b815481529060010190602001808311611a4257829003601f168201915b50509250505060405180910390a18080600101915050611984565b50565b60028181548110611a8d57600080fd5b9060005260206000209060020201600091509050806000018054600181600116156101000203166002900480601f016020809104026020016040519081016040528092919081815260200182805460018160011615610100020316600290048015611b395780601f10611b0e57610100808354040283529160200191611b39565b820191906000526020600020905b815481529060010190602001808311611b1c57829003601f168201915b5050505050908060010160009054906101000a900463ffffffff16905082565b600060608290506000809250600090505b8151811015611bcb576000828281518110611b8157fe5b602001015160f81c60f81b60f81c905060308160ff1610158015611ba9575060398160ff1611155b15611bbd576030810360ff16600a85020193505b508080600101915050611b6a565b5050919050565b6040518060400160405280600073ffffffffffffffffffffffffffffffffffffffff16815260200160006001811115611c0757fe5b81525090565b828054600181600116156101000203166002900490600052602060002090601f016020900481019282611c435760008555611c8a565b82601f10611c5c57805160ff1916838001178555611c8a565b82800160010185558215611c8a579182015b82811115611c89578251825591602001919060010190611c6e565b5b509050611c979190611cb7565b5090565b6040518060400160405280606081526020016000151581525090565b5b80821115611cd0576000816000905550600101611cb8565b509056fe596f757220766f746520646f65736e2774206d6174636820796f75722068617368546865726520616c726561647920657869737473206120766f7465207769746820746869732068617368596f75722063686f696365206e756d62657220646f65736e2774206d6174636820796f757220766f74655468697320766f746520646f65736e2774206578697374206f722069736e277420796f757273a26469706673582212200e7a171c526a5d59d2ebf8d1cd81fd315a41222719458a75f61d0896afad823c64736f6c63430007040033a2646970667358221220305f04369d9a166e2f7db891b4de8d890a3e79bf18faaa7aa9bef4bc6c33c9f964736f6c63430007040033",
  "immutableReferences": {},
  "source": "// SPDX-License-Identifier: MIT\r\npragma solidity >=0.7.0 <0.8.0;\r\n\r\nimport \"./Ballot.sol\";\r\n\r\ncontract BallotFactory {\r\n  address[] public deployedBallots;\r\n  \r\n  event deployedContract(address _address);\r\n  \r\n  function createNewBallot(string memory _details) public {\r\n    //Deploy a new ballot\r\n    Ballot newBallot = new Ballot(_details, msg.sender);\r\n    //Get the address\r\n    address ballotAddress = address(newBallot);\r\n    deployedBallots.push(ballotAddress);\r\n    emit deployedContract(ballotAddress);\r\n  }\r\n\r\n  function getBallots() public view returns(address[] memory) {\r\n      return deployedBallots;\r\n  }\r\n}\r\n",
  "sourcePath": "D:/Andrei HDD/Facultate/FMI/an 3/licenta/react-eth-commit-reveal-voting/contracts/BallotFactory.sol",
  "compiler": {
    "name": "solc",
    "version": "0.7.4+commit.3f05b770.Emscripten.clang"
  },
  "schemaVersion": "3.3.2",
  "updatedAt": "2021-02-21T13:44:17.369Z",
  "networkType": "ethereum",
  "devdoc": {
    "kind": "dev",
    "methods": {},
    "version": 1
  },
  "userdoc": {
    "kind": "user",
    "methods": {},
    "version": 1
  }
}