{
  "contractName": "Ballot",
  "abi": [
    {
      "inputs": [
        {
          "internalType": "string",
          "name": "_ballotDetails",
          "type": "string"
        },
        {
          "internalType": "address payable",
          "name": "_owner",
          "type": "address"
        }
      ],
      "stateMutability": "nonpayable",
      "type": "constructor"
    },
    {
      "anonymous": false,
      "inputs": [
        {
          "indexed": false,
          "internalType": "string",
          "name": "name",
          "type": "string"
        }
      ],
      "name": "choiceAdded",
      "type": "event"
    },
    {
      "anonymous": false,
      "inputs": [
        {
          "indexed": false,
          "internalType": "string",
          "name": "name",
          "type": "string"
        }
      ],
      "name": "choiceName",
      "type": "event"
    },
    {
      "anonymous": false,
      "inputs": [
        {
          "indexed": false,
          "internalType": "bytes32",
          "name": "voteInfo",
          "type": "bytes32"
        },
        {
          "indexed": false,
          "internalType": "bytes32",
          "name": "pass",
          "type": "bytes32"
        }
      ],
      "name": "voteCommitted",
      "type": "event"
    },
    {
      "anonymous": false,
      "inputs": [
        {
          "indexed": false,
          "internalType": "bytes32",
          "name": "voteInfo",
          "type": "bytes32"
        },
        {
          "indexed": false,
          "internalType": "uint8",
          "name": "vote",
          "type": "uint8"
        },
        {
          "indexed": false,
          "internalType": "bytes32",
          "name": "name",
          "type": "bytes32"
        }
      ],
      "name": "voteRevealed",
      "type": "event"
    },
    {
      "anonymous": false,
      "inputs": [
        {
          "indexed": false,
          "internalType": "address",
          "name": "voter",
          "type": "address"
        },
        {
          "indexed": false,
          "internalType": "string",
          "name": "name",
          "type": "string"
        }
      ],
      "name": "voterAdded",
      "type": "event"
    },
    {
      "anonymous": false,
      "inputs": [
        {
          "indexed": false,
          "internalType": "bytes32",
          "name": "ballotInfo",
          "type": "bytes32"
        }
      ],
      "name": "votesCanBeRevealed",
      "type": "event"
    },
    {
      "anonymous": false,
      "inputs": [
        {
          "indexed": false,
          "internalType": "string",
          "name": "name",
          "type": "string"
        },
        {
          "indexed": false,
          "internalType": "uint32",
          "name": "result",
          "type": "uint32"
        }
      ],
      "name": "votingEnded",
      "type": "event"
    },
    {
      "anonymous": false,
      "inputs": [
        {
          "indexed": false,
          "internalType": "bytes32",
          "name": "ballotInfo",
          "type": "bytes32"
        }
      ],
      "name": "votingStarted",
      "type": "event"
    },
    {
      "inputs": [],
      "name": "ballotDetails",
      "outputs": [
        {
          "internalType": "string",
          "name": "",
          "type": "string"
        }
      ],
      "stateMutability": "view",
      "type": "function"
    },
    {
      "inputs": [],
      "name": "ballotOwner",
      "outputs": [
        {
          "internalType": "address payable",
          "name": "",
          "type": "address"
        }
      ],
      "stateMutability": "view",
      "type": "function"
    },
    {
      "inputs": [],
      "name": "ballotState",
      "outputs": [
        {
          "internalType": "enum Ballot.BallotState",
          "name": "",
          "type": "uint8"
        }
      ],
      "stateMutability": "view",
      "type": "function"
    },
    {
      "inputs": [
        {
          "internalType": "uint256",
          "name": "",
          "type": "uint256"
        }
      ],
      "name": "choices",
      "outputs": [
        {
          "internalType": "string",
          "name": "name",
          "type": "string"
        },
        {
          "internalType": "uint32",
          "name": "voteCount",
          "type": "uint32"
        }
      ],
      "stateMutability": "view",
      "type": "function"
    },
    {
      "inputs": [],
      "name": "totalVoters",
      "outputs": [
        {
          "internalType": "uint32",
          "name": "",
          "type": "uint32"
        }
      ],
      "stateMutability": "view",
      "type": "function"
    },
    {
      "inputs": [],
      "name": "totalVotes",
      "outputs": [
        {
          "internalType": "uint32",
          "name": "",
          "type": "uint32"
        }
      ],
      "stateMutability": "view",
      "type": "function"
    },
    {
      "inputs": [
        {
          "internalType": "address",
          "name": "voterAddress_",
          "type": "address"
        },
        {
          "internalType": "string",
          "name": "voterName_",
          "type": "string"
        }
      ],
      "name": "addVoter",
      "outputs": [],
      "stateMutability": "nonpayable",
      "type": "function"
    },
    {
      "inputs": [
        {
          "internalType": "string",
          "name": "_choiceName",
          "type": "string"
        }
      ],
      "name": "addChoice",
      "outputs": [],
      "stateMutability": "nonpayable",
      "type": "function"
    },
    {
      "inputs": [],
      "name": "showChoices",
      "outputs": [],
      "stateMutability": "nonpayable",
      "type": "function"
    },
    {
      "inputs": [],
      "name": "startVote",
      "outputs": [],
      "stateMutability": "nonpayable",
      "type": "function"
    },
    {
      "inputs": [
        {
          "internalType": "bytes32",
          "name": "_voteCommit",
          "type": "bytes32"
        }
      ],
      "name": "commitVote",
      "outputs": [],
      "stateMutability": "nonpayable",
      "type": "function"
    },
    {
      "inputs": [],
      "name": "startReveal",
      "outputs": [],
      "stateMutability": "nonpayable",
      "type": "function"
    },
    {
      "inputs": [
        {
          "internalType": "string",
          "name": "_choiceNumber",
          "type": "string"
        },
        {
          "internalType": "string",
          "name": "_vote",
          "type": "string"
        },
        {
          "internalType": "bytes32",
          "name": "_voteCommit",
          "type": "bytes32"
        }
      ],
      "name": "revealVote",
      "outputs": [],
      "stateMutability": "nonpayable",
      "type": "function"
    },
    {
      "inputs": [],
      "name": "endVote",
      "outputs": [
        {
          "internalType": "string",
          "name": "winnerName",
          "type": "string"
        },
        {
          "internalType": "uint32",
          "name": "winnerVoteCount",
          "type": "uint32"
        }
      ],
      "stateMutability": "nonpayable",
      "type": "function"
    }
  ],
  "bytecode": "0x60806040526000600360006101000a81548163ffffffff021916908363ffffffff1602179055506000600360046101000a81548163ffffffff021916908363ffffffff1602179055503480156200005557600080fd5b506040516200203b3803806200203b833981810160405260408110156200007b57600080fd5b81019080805160405193929190846401000000008211156200009c57600080fd5b83820191506020820185811115620000b357600080fd5b8251866001820283011164010000000082111715620000d157600080fd5b8083526020830192505050908051906020019080838360005b8381101562000107578082015181840152602081019050620000ea565b50505050905090810190601f168015620001355780820380516001836020036101000a031916815260200191505b506040526020018051906020019092919050505080600360086101000a81548173ffffffffffffffffffffffffffffffffffffffff021916908373ffffffffffffffffffffffffffffffffffffffff1602179055508160049080519060200190620001a2929190620001d0565b506000600560006101000a81548160ff02191690836003811115620001c357fe5b0217905550505062000286565b828054600181600116156101000203166002900490600052602060002090601f01602090048101928262000208576000855562000254565b82601f106200022357805160ff191683800117855562000254565b8280016001018555821562000254579182015b828111156200025357825182559160200191906001019062000236565b5b50905062000263919062000267565b5090565b5b808211156200028257600081600090555060010162000268565b5090565b611da580620002966000396000f3fe608060405234801561001057600080fd5b50600436106100ea5760003560e01c80639127566a1161008c578063d9e95a9811610066578063d9e95a98146104cc578063dca97183146105a7578063e23dbd54146105db578063f6fd7fde146105e5576100ea565b80639127566a146103af578063ad72202b14610432578063b92239461461043c576100ea565b80633e858923116100c85780633e858923146102985780634c0a6af0146102c65780635f5300ff146102d05780635fa520bb146102f4576100ea565b80630d15fd77146100ef57806322f25e401461011357806329f4ecb81461026f575b600080fd5b6100f7610699565b604051808263ffffffff16815260200191505060405180910390f35b61026d6004803603606081101561012957600080fd5b810190808035906020019064010000000081111561014657600080fd5b82018360208201111561015857600080fd5b8035906020019184600183028401116401000000008311171561017a57600080fd5b91908080601f016020809104026020016040519081016040528093929190818152602001838380828437600081840152601f19601f820116905080830192505050505050509192919290803590602001906401000000008111156101dd57600080fd5b8201836020820111156101ef57600080fd5b8035906020019184600183028401116401000000008311171561021157600080fd5b91908080601f016020809104026020016040519081016040528093929190818152602001838380828437600081840152601f19601f820116905080830192505050505050509192919290803590602001909291905050506106af565b005b610277610aaf565b6040518082600381111561028757fe5b815260200191505060405180910390f35b6102c4600480360360208110156102ae57600080fd5b8101908080359060200190929190505050610ac2565b005b6102ce610eac565b005b6102d8610fb7565b604051808263ffffffff16815260200191505060405180910390f35b6103ad6004803603602081101561030a57600080fd5b810190808035906020019064010000000081111561032757600080fd5b82018360208201111561033957600080fd5b8035906020019184600183028401116401000000008311171561035b57600080fd5b91908080601f016020809104026020016040519081016040528093929190818152602001838380828437600081840152601f19601f820116905080830192505050505050509192919290505050610fcd565b005b6103b7611187565b6040518080602001828103825283818151815260200191508051906020019080838360005b838110156103f75780820151818401526020810190506103dc565b50505050905090810190601f1680156104245780820380516001836020036101000a031916815260200191505b509250505060405180910390f35b61043a611225565b005b610444611330565b60405180806020018363ffffffff168152602001828103825284818151815260200191508051906020019080838360005b83811015610490578082015181840152602081019050610475565b50505050905090810190601f1680156104bd5780820380516001836020036101000a031916815260200191505b50935050505060405180910390f35b6105a5600480360360408110156104e257600080fd5b81019080803573ffffffffffffffffffffffffffffffffffffffff1690602001909291908035906020019064010000000081111561051f57600080fd5b82018360208201111561053157600080fd5b8035906020019184600183028401116401000000008311171561055357600080fd5b91908080601f016020809104026020016040519081016040528093929190818152602001838380828437600081840152601f19601f8201169050808301925050505050505091929192905050506115ed565b005b6105af61195b565b604051808273ffffffffffffffffffffffffffffffffffffffff16815260200191505060405180910390f35b6105e3611981565b005b610611600480360360208110156105fb57600080fd5b8101908080359060200190929190505050611a7d565b60405180806020018363ffffffff168152602001828103825284818151815260200191508051906020019080838360005b8381101561065d578082015181840152602081019050610642565b50505050905090810190601f16801561068a5780820380516001836020036101000a031916815260200191505b50935050505060405180910390f35b600360049054906101000a900463ffffffff1681565b60028060038111156106bd57fe5b600560009054906101000a900460ff1660038111156106d857fe5b146106e257600080fd5b3373ffffffffffffffffffffffffffffffffffffffff1660008084815260200190815260200160002060000160009054906101000a900473ffffffffffffffffffffffffffffffffffffffff1673ffffffffffffffffffffffffffffffffffffffff161461079b576040517f08c379a0000000000000000000000000000000000000000000000000000000008152600401808060200182810382526026815260200180611d4a6026913960400191505060405180910390fd5b600060018111156107a857fe5b60008084815260200190815260200160002060000160149054906101000a900460ff1660018111156107d657fe5b14610849576040517f08c379a000000000000000000000000000000000000000000000000000000000815260040180806020018281038252601e8152602001807f5468697320766f74652077617320616c72656164792072657665616c6564000081525060200191505060405180910390fd5b81836040516020018082805190602001908083835b60208310610881578051825260208201915060208101905060208303925061085e565b6001836020036101000a0380198251168184511680821785525050505050509050019150506040516020818303038152906040528051906020012014610912576040517f08c379a0000000000000000000000000000000000000000000000000000000008152600401808060200182810382526021815260200180611cd56021913960400191505060405180910390fd5b6060849050606084905060005b82518160ff161015610a0657818160ff168151811061093a57fe5b602001015160f81c60f81b7effffffffffffffffffffffffffffffffffffffffffffffffffffffffffffff1916838260ff168151811061097657fe5b602001015160f81c60f81b7effffffffffffffffffffffffffffffffffffffffffffffffffffffffffffff1916146109f9576040517f08c379a000000000000000000000000000000000000000000000000000000000815260040180806020018281038252602a815260200180611d20602a913960400191505060405180910390fd5b808060010191505061091f565b506000610a1287611b59565b9050600160028260ff1681548110610a2657fe5b906000526020600020906002020160010160008282829054906101000a900463ffffffff160192506101000a81548163ffffffff021916908363ffffffff160217905550600180811115610a7657fe5b60008087815260200190815260200160002060000160149054906101000a900460ff166001811115610aa457fe5b505050505050505050565b600560009054906101000a900460ff1681565b6001806003811115610ad057fe5b600560009054906101000a900460ff166003811115610aeb57fe5b14610af557600080fd5b6000600160003373ffffffffffffffffffffffffffffffffffffffff1673ffffffffffffffffffffffffffffffffffffffff16815260200190815260200160002090506000816000018054600181600116156101000203166002900490501415610bc7576040517f08c379a00000000000000000000000000000000000000000000000000000000081526004018080602001828103825260168152602001807f41646472657373206e6f7420726567697374657265640000000000000000000081525060200191505060405180910390fd5b8060010160009054906101000a900460ff1615610c4c576040517f08c379a000000000000000000000000000000000000000000000000000000000815260040180806020018281038252600e8152602001807f416c726561647920766f7465642e00000000000000000000000000000000000081525060200191505060405180910390fd5b600073ffffffffffffffffffffffffffffffffffffffff1660008085815260200190815260200160002060000160009054906101000a900473ffffffffffffffffffffffffffffffffffffffff1673ffffffffffffffffffffffffffffffffffffffff1614610d06576040517f08c379a000000000000000000000000000000000000000000000000000000000815260040180806020018281038252602a815260200180611cf6602a913960400191505060405180910390fd5b610d0e611bd2565b33816000019073ffffffffffffffffffffffffffffffffffffffff16908173ffffffffffffffffffffffffffffffffffffffff1681525050600081602001906001811115610d5857fe5b90816001811115610d6557fe5b815250508060008086815260200190815260200160002060008201518160000160006101000a81548173ffffffffffffffffffffffffffffffffffffffff021916908373ffffffffffffffffffffffffffffffffffffffff16021790555060208201518160000160146101000a81548160ff02191690836001811115610de757fe5b021790555090505060018260010160006101000a81548160ff0219169083151502179055506003600481819054906101000a900463ffffffff168092919060010191906101000a81548163ffffffff021916908363ffffffff160217905550507f31e6286c8ecb5d48a59917fa389f0c011812ddd8330b8c71c185d21b19b846fa8460405180807f566f746520636f6d6d697474656420776974682068617368200000000000000081525060200182815260200191505060405180910390a150505050565b600360089054906101000a900473ffffffffffffffffffffffffffffffffffffffff1673ffffffffffffffffffffffffffffffffffffffff163373ffffffffffffffffffffffffffffffffffffffff1614610f0657600080fd5b6000806003811115610f1457fe5b600560009054906101000a900460ff166003811115610f2f57fe5b14610f3957600080fd5b6001600560006101000a81548160ff02191690836003811115610f5857fe5b02179055507f0d6a0e72f1f57a45518382c31c3d7d499a3e45d95fb4caddb0372bd448e7e5b060405180807f566f74696e672068617320737461727465640000000000000000000000000000815250602001905060405180910390a150565b600360009054906101000a900463ffffffff1681565b600360089054906101000a900473ffffffffffffffffffffffffffffffffffffffff1673ffffffffffffffffffffffffffffffffffffffff163373ffffffffffffffffffffffffffffffffffffffff161461102757600080fd5b600080600381111561103557fe5b600560009054906101000a900460ff16600381111561105057fe5b1461105a57600080fd5b60026040518060400160405280848152602001600063ffffffff16815250908060018154018082558091505060019003906000526020600020906002020160009091909190915060008201518160000190805190602001906110bd929190611c0d565b5060208201518160010160006101000a81548163ffffffff021916908363ffffffff16021790555050507fba6b30eb3b7d3bc2fb7b79cfbce81c0bac85268f4fa985a5c5aa6f141fbf1465826040518080602001828103825283818151815260200191508051906020019080838360005b8381101561114957808201518184015260208101905061112e565b50505050905090810190601f1680156111765780820380516001836020036101000a031916815260200191505b509250505060405180910390a15050565b60048054600181600116156101000203166002900480601f01602080910402602001604051908101604052809291908181526020018280546001816001161561010002031660029004801561121d5780601f106111f25761010080835404028352916020019161121d565b820191906000526020600020905b81548152906001019060200180831161120057829003601f168201915b505050505081565b600360089054906101000a900473ffffffffffffffffffffffffffffffffffffffff1673ffffffffffffffffffffffffffffffffffffffff163373ffffffffffffffffffffffffffffffffffffffff161461127f57600080fd5b600180600381111561128d57fe5b600560009054906101000a900460ff1660038111156112a857fe5b146112b257600080fd5b6002600560006101000a81548160ff021916908360038111156112d157fe5b02179055507f8e8f5aee9431ee3cdd3482144e1a06dbb60dfca779dbb69ff38677931f948ff360405180807f506c656173652072657665616c20796f757220766f746573206e6f7700000000815250602001905060405180910390a150565b60606000600360089054906101000a900473ffffffffffffffffffffffffffffffffffffffff1673ffffffffffffffffffffffffffffffffffffffff163373ffffffffffffffffffffffffffffffffffffffff161461138e57600080fd5b600280600381111561139c57fe5b600560009054906101000a900460ff1660038111156113b757fe5b146113c157600080fd5b60008060005b6002805490508110156114585782600282815481106113e257fe5b906000526020600020906002020160010160009054906101000a900463ffffffff1663ffffffff16111561144b576002818154811061141d57fe5b906000526020600020906002020160010160009054906101000a900463ffffffff1663ffffffff1692508091505b80806001019150506113c7565b506002818154811061146657fe5b90600052602060002090600202016000018054600181600116156101000203166002900480601f01602080910402602001604051908101604052809291908181526020018280546001816001161561010002031660029004801561150b5780601f106114e05761010080835404028352916020019161150b565b820191906000526020600020905b8154815290600101906020018083116114ee57829003601f168201915b505050505094506003600560006101000a81548160ff0219169083600381111561153157fe5b02179055507f2a7e354b64c657742b73fe53ae41272be152db4a043264298a57cc6a9f7c4463858360405180806020018363ffffffff168152602001828103825284818151815260200191508051906020019080838360005b838110156115a557808201518184015260208101905061158a565b50505050905090810190601f1680156115d25780820380516001836020036101000a031916815260200191505b50935050505060405180910390a18482945094505050509091565b600360089054906101000a900473ffffffffffffffffffffffffffffffffffffffff1673ffffffffffffffffffffffffffffffffffffffff163373ffffffffffffffffffffffffffffffffffffffff161461164757600080fd5b600080600381111561165557fe5b600560009054906101000a900460ff16600381111561167057fe5b1461167a57600080fd5b6000825114156116f2576040517f08c379a000000000000000000000000000000000000000000000000000000000815260040180806020018281038252600d8152602001807f456e7465722061206e616d65210000000000000000000000000000000000000081525060200191505060405180910390fd5b6000600160008573ffffffffffffffffffffffffffffffffffffffff1673ffffffffffffffffffffffffffffffffffffffff168152602001908152602001600020600001805460018160011615610100020316600290049050146117be576040517f08c379a00000000000000000000000000000000000000000000000000000000081526004018080602001828103825260198152602001807f566f74657220616c72656164792072656769737465726564210000000000000081525060200191505060405180910390fd5b6117c6611c9b565b828160000181905250600081602001901515908115158152505080600160008673ffffffffffffffffffffffffffffffffffffffff1673ffffffffffffffffffffffffffffffffffffffff168152602001908152602001600020600082015181600001908051906020019061183c929190611c0d565b5060208201518160010160006101000a81548160ff0219169083151502179055509050506003600081819054906101000a900463ffffffff168092919060010191906101000a81548163ffffffff021916908363ffffffff160217905550507f7f965c9bb469cafa2ed0036125936e24650cefc1e5d7b9632fe7f27af4a70b378484604051808373ffffffffffffffffffffffffffffffffffffffff16815260200180602001828103825283818151815260200191508051906020019080838360005b8381101561191a5780820151818401526020810190506118ff565b50505050905090810190601f1680156119475780820380516001836020036101000a031916815260200191505b50935050505060405180910390a150505050565b600360089054906101000a900473ffffffffffffffffffffffffffffffffffffffff1681565b60005b6002805490508160ff161015611a7a577ff589124bd4030e8729018c2a93187ab134a3863740c75a6459d9aa9106aea02e60028260ff16815481106119c557fe5b90600052602060002090600202016000016040518080602001828103825283818154600181600116156101000203166002900481526020019150805460018160011615610100020316600290048015611a5f5780601f10611a3457610100808354040283529160200191611a5f565b820191906000526020600020905b815481529060010190602001808311611a4257829003601f168201915b50509250505060405180910390a18080600101915050611984565b50565b60028181548110611a8d57600080fd5b9060005260206000209060020201600091509050806000018054600181600116156101000203166002900480601f016020809104026020016040519081016040528092919081815260200182805460018160011615610100020316600290048015611b395780601f10611b0e57610100808354040283529160200191611b39565b820191906000526020600020905b815481529060010190602001808311611b1c57829003601f168201915b5050505050908060010160009054906101000a900463ffffffff16905082565b600060608290506000809250600090505b8151811015611bcb576000828281518110611b8157fe5b602001015160f81c60f81b60f81c905060308160ff1610158015611ba9575060398160ff1611155b15611bbd576030810360ff16600a85020193505b508080600101915050611b6a565b5050919050565b6040518060400160405280600073ffffffffffffffffffffffffffffffffffffffff16815260200160006001811115611c0757fe5b81525090565b828054600181600116156101000203166002900490600052602060002090601f016020900481019282611c435760008555611c8a565b82601f10611c5c57805160ff1916838001178555611c8a565b82800160010185558215611c8a579182015b82811115611c89578251825591602001919060010190611c6e565b5b509050611c979190611cb7565b5090565b6040518060400160405280606081526020016000151581525090565b5b80821115611cd0576000816000905550600101611cb8565b509056fe596f757220766f746520646f65736e2774206d6174636820796f75722068617368546865726520616c726561647920657869737473206120766f7465207769746820746869732068617368596f75722063686f696365206e756d62657220646f65736e2774206d6174636820796f757220766f74655468697320766f746520646f65736e2774206578697374206f722069736e277420796f757273a26469706673582212200e7a171c526a5d59d2ebf8d1cd81fd315a41222719458a75f61d0896afad823c64736f6c63430007040033",
  "immutableReferences": {},
  "source": "// SPDX-License-Identifier: MIT\r\npragma solidity >=0.7.0 <0.8.0;\r\n\r\n\r\n\r\n/// @title Commit Reveal Voting Scheme\r\n/// @author Andrei Budoi\r\n/// @notice Votes must be encrypted using keccak256\r\n/// @dev Should try to change most strings into bytes32 sometime\r\ncontract Ballot {\r\n  \r\n    struct Voter {\r\n        string name;   // can represent name or id \r\n        bool voted;  // if true, that person already voted\r\n    }\r\n\r\n    // State of a vote\r\n    // Committed -> After sending a hashed vote during the \"Voting\" state of the ballot\r\n    // Revealed -> After sending the hashed vote together with correct decrypted vote during the \"Revealing\" state of the ballot\r\n    enum VoteState { Committed, Revealed }\r\n\r\n    struct Vote{\r\n        address voterAddress; // who voted\r\n        VoteState voteState; // Committed or Revealed\r\n    }\r\n\r\n    // This is a type for a single proposal (choice).\r\n    struct Choice {\r\n        string name;   // short name (up to 32 chars)\r\n        uint32 voteCount; // number of accumulated votes (max 4294967296 votes per proposal)\r\n    }\r\n\r\n\r\n    mapping(bytes32 => Vote) votes; // Either `Committed` or `Revealed`; indexed by hashed choice\r\n    mapping(address => Voter) voters; // Registered voters are indexed by their wallet address\r\n\r\n    // A dynamically-sized array of `Choice` structs.\r\n    Choice[] public choices;\r\n\r\n    // uint32 -> max 4294967296 voters/votes\r\n    uint32 public totalVoters = 0;\r\n    uint32 public totalVotes = 0;\r\n    address payable public ballotOwner;\r\n    string public ballotDetails;\r\n\r\n    //State of the Ballot Contract\r\n    //Created -> Proposals and voters are added\r\n    //Voting -> Every registered voter commits a hashed vote with the format \"[index of proposal]-[password]\" \r\n    //      passwords must be hashed using Keccak-256\r\n    //      example: \"2-yogurt\" -> \"0xedf92158c3f1170092fb3b3f15ff96adf2ee73ea0c92d07d2dfc84612938abf9\")\r\n    //Revealing -> Voting has ended and everybody has to submit their passwords so that the votes can be counted\r\n    //Ended -> Final results become available\r\n    enum BallotState { Created, Voting, Revealing, Ended }\r\n\r\n\tBallotState public ballotState;\r\n\r\n\r\n    /** EVENTS */\r\n\r\n    // Events used to log what's going on in the contract\r\n    event voterAdded(address voter, string name);\r\n    event choiceAdded(string name);\r\n    event choiceName(string name);\r\n    event votingStarted(bytes32 ballotInfo);\r\n    event voteCommitted(bytes32 voteInfo, bytes32 pass);\r\n    event votesCanBeRevealed(bytes32 ballotInfo);\r\n    event voteRevealed(bytes32 voteInfo, uint8 vote, bytes32 name);\r\n    event votingEnded(string name, uint32 result);\r\n    \r\n\r\n    /** FUNCTIONS */\r\n\r\n    /// @notice Setup the owner of the contract and its description\r\n    constructor(string memory _ballotDetails, address payable _owner){\r\n        ballotOwner = _owner;\r\n        ballotDetails = _ballotDetails;\r\n        ballotState = BallotState.Created;\r\n    }\r\n    \r\n    modifier onlyBallotOwner() {\r\n\t\trequire(msg.sender == ballotOwner);\r\n\t\t_;\r\n\t}\r\n\r\n    modifier onlyWhenStateIs(BallotState _state) {\r\n\t\trequire(ballotState == _state);\r\n\t\t_;\r\n\t}\r\n\r\n    /// @notice Register a voter. Must have a name or id and it shouldn't be already registered.\r\n    /// @dev Maybe change function to accept array of voters?\r\n    /// @param voterAddress_ The voter's wallet address\r\n    /// @param voterName_ The voter's name or id\r\n    function addVoter(address voterAddress_, string memory voterName_)\r\n        public\r\n        onlyBallotOwner\r\n        onlyWhenStateIs(BallotState.Created)\r\n    {\r\n        require(bytes(voterName_).length != 0, \"Enter a name!\");\r\n        require(bytes(voters[voterAddress_].name).length == 0 , \"Voter already registered!\");\r\n\r\n        Voter memory voter;\r\n        voter.name = voterName_;\r\n        voter.voted = false;    \r\n        voters[voterAddress_] = voter; // Add registered voter to mapping\r\n\r\n        totalVoters++;\r\n\r\n        emit voterAdded(voterAddress_, voterName_);\r\n    }\r\n\r\n    /// @notice Add a new choice to vote for\r\n    /// @dev Maybe change function to accept array of choices?\r\n    /// @param _choiceName Name or description of proposal.\r\n    function addChoice(string memory _choiceName)\r\n        public\r\n        onlyBallotOwner\r\n        onlyWhenStateIs(BallotState.Created)\r\n    {\r\n        choices.push(Choice({\r\n            name: _choiceName,\r\n            voteCount: 0\r\n        }));\r\n        emit choiceAdded(_choiceName);\r\n    }\r\n    \r\n    /// @notice Show the list of choices\r\n    function showChoices () public {\r\n        for (uint8 i = 0; i < choices.length; i++) {\r\n            emit choiceName(choices[i].name);\r\n        }\r\n    }\r\n\r\n    /// @notice Start the vote\r\n    function startVote()\r\n        public\r\n        onlyBallotOwner\r\n        onlyWhenStateIs(BallotState.Created)\r\n    {\r\n        ballotState = BallotState.Voting;     \r\n        emit votingStarted(\"Voting has started\");\r\n    }\r\n\r\n    /// @param _voteCommit Encrypted vote with the format \"[No. of choice]-[password]\" \r\n    /// @notice !!!! The array of choices is indexed from 0   \r\n    /// @notice !!!! Votes must be encrypted using Keccak-256\r\n    /// @notice https://emn178.github.io/online-tools/keccak_256.html\r\n    /// @notice Example: \"2-yogurt\" (picked third option with \"yogurt\" as a password) will be encrypted and sent as \r\n    /// @notice \"0xedf92158c3f1170092fb3b3f15ff96adf2ee73ea0c92d07d2dfc84612938abf9\"\r\n    /// @notice !!!! No two hashes can be the same in a ballot. A hash must be unique\r\n    function commitVote(bytes32 _voteCommit)\r\n        public\r\n        onlyWhenStateIs(BallotState.Voting)\r\n    {\r\n        Voter storage sender = voters[msg.sender];\r\n        \r\n        require(bytes(sender.name).length != 0 , \"Address not registered\");\r\n        require(!sender.voted, \"Already voted.\");\r\n        require(votes[_voteCommit].voterAddress == address(0x0), \"There already exists a vote with this hash\");\r\n\r\n        Vote memory vote;\r\n        // Create vote\r\n        vote.voterAddress = msg.sender;\r\n        vote.voteState = VoteState.Committed;\r\n\r\n        // Add the committed vote\r\n        votes[_voteCommit] = vote;\r\n\r\n        // Flag voter\r\n        sender.voted = true;\r\n    \r\n        totalVotes ++;\r\n        voteCommitted(\"Vote committed with hash \", _voteCommit);\r\n    }\r\n\r\n    /// @notice Start revealing votes\r\n    function startReveal()\r\n        public\r\n        onlyBallotOwner\r\n        onlyWhenStateIs(BallotState.Voting)\r\n    {\r\n        ballotState = BallotState.Revealing;     \r\n        emit votesCanBeRevealed(\"Please reveal your votes now\");\r\n    }\r\n\r\n    /// @notice Reveal your vote. \r\n    /// @param _choiceNumber Index of your picked choice. Must match with _vote's [No. of choice]\r\n    /// @param _vote Your decrypted vote with the format \"[No. of choice]-[password]\". Must match _voteCommit if encrypted with keccak256.\r\n    /// @param _voteCommit Your encrypted vote committed during \"Voting\" state.\r\n    function revealVote(string memory _choiceNumber, string memory _vote, bytes32 _voteCommit) \r\n        public\r\n        onlyWhenStateIs(BallotState.Revealing)\r\n    {\r\n        require(votes[_voteCommit].voterAddress == msg.sender, \"This vote doesn't exist or isn't yours\");\r\n        require(votes[_voteCommit].voteState == VoteState.Committed, \"This vote was already revealed\");\r\n        require(keccak256(abi.encodePacked(_vote)) == _voteCommit, \"Your vote doesn't match your hash\");\r\n\r\n        // Check first bytes of _choiceNumber and _vote to see if they match\r\n        bytes memory bytesChoiceNumber = bytes(_choiceNumber);\r\n        bytes memory bytesVote = bytes(_vote);\r\n        \r\n        for (uint8 i = 0; i < bytesChoiceNumber.length; i++) {\r\n            require(bytesChoiceNumber[i] == bytesVote[i], \"Your choice number doesn't match your vote\");\r\n        }\r\n        \r\n        // Convert _choiceNumber to uint\r\n        uint8 uintChoiceNumber = uint8(stringToUint(_choiceNumber));\r\n\r\n        // Increase vote count for the option chosen\r\n        choices[uintChoiceNumber].voteCount += 1;\r\n\r\n        //Change state of vote\r\n        votes[_voteCommit].voteState == VoteState.Revealed;\r\n    }\r\n    \r\n    /// @notice Ends the vote. Committed votes cannot be revealed anymore\r\n    /// @dev Should add a way to check for ties and handle them accordingly.\r\n    /// @return winnerName Winner's name and vote count\r\n    function endVote() \r\n        public\r\n        onlyBallotOwner\r\n        onlyWhenStateIs(BallotState.Revealing)\r\n        returns (string memory winnerName, uint32 winnerVoteCount)\r\n    {\r\n        uint winningVoteCount = 0;\r\n        uint winnerIndex = 0;\r\n\r\n        for (uint i = 0; i < choices.length; i++) {\r\n            if (choices[i].voteCount > winningVoteCount) {\r\n                winningVoteCount = choices[i].voteCount;\r\n                winnerIndex = i;\r\n            }\r\n        }\r\n\r\n        winnerName = choices[winnerIndex].name;\r\n        ballotState = BallotState.Ended;     \r\n        emit votingEnded(winnerName, uint32(winningVoteCount));\r\n        return (winnerName, uint32(winningVoteCount));\r\n    }\r\n\r\n    /// @notice Function that converts string to uint\r\n    /// @param s Value to parse\r\n    /// @return result An unsigned integer parsed from given string. Returns 0 if numbers are not found.\r\n    function stringToUint(string memory s) internal pure returns (uint result) {\r\n        bytes memory b = bytes(s);\r\n        uint i;\r\n        result = 0;\r\n        for (i = 0; i < b.length; i++) {\r\n            uint8 c = uint8(b[i]);\r\n            if (c >= 48 && c <= 57) {\r\n                result = result * 10 + (c - 48);\r\n            }\r\n        }\r\n        return result;\r\n    }\r\n}",
  "sourcePath": "D:\\Andrei HDD\\Facultate\\FMI\\an 3\\licenta\\react-eth-commit-reveal-voting\\contracts\\Ballot.sol",
  "compiler": {
    "name": "solc",
    "version": "0.7.4+commit.3f05b770.Emscripten.clang"
  },
  "schemaVersion": "3.3.2",
  "updatedAt": "2021-02-21T13:44:09.941Z",
  "devdoc": {
    "author": "Andrei Budoi",
    "details": "Should try to change most strings into bytes32 sometime",
    "kind": "dev",
    "methods": {
      "addChoice(string)": {
        "details": "Maybe change function to accept array of choices?",
        "params": {
          "_choiceName": "Name or description of proposal."
        }
      },
      "addVoter(address,string)": {
        "details": "Maybe change function to accept array of voters?",
        "params": {
          "voterAddress_": "The voter's wallet address",
          "voterName_": "The voter's name or id"
        }
      },
      "commitVote(bytes32)": {
        "params": {
          "_voteCommit": "Encrypted vote with the format \"[No. of choice]-[password]\" "
        }
      },
      "endVote()": {
        "details": "Should add a way to check for ties and handle them accordingly.",
        "returns": {
          "winnerName": "Winner's name and vote count"
        }
      },
      "revealVote(string,string,bytes32)": {
        "params": {
          "_choiceNumber": "Index of your picked choice. Must match with _vote's [No. of choice]",
          "_vote": "Your decrypted vote with the format \"[No. of choice]-[password]\". Must match _voteCommit if encrypted with keccak256.",
          "_voteCommit": "Your encrypted vote committed during \"Voting\" state."
        }
      }
    },
    "title": "Commit Reveal Voting Scheme",
    "version": 1
  },
  "userdoc": {
    "events": {
      "voterAdded(address,string)": {
        "notice": "EVENTS "
      }
    },
    "kind": "user",
    "methods": {
      "addChoice(string)": {
        "notice": "Add a new choice to vote for"
      },
      "addVoter(address,string)": {
        "notice": "Register a voter. Must have a name or id and it shouldn't be already registered."
      },
      "commitVote(bytes32)": {
        "notice": "!!!! The array of choices is indexed from 0   !!!! Votes must be encrypted using Keccak-256https://emn178.github.io/online-tools/keccak_256.htmlExample: \"2-yogurt\" (picked third option with \"yogurt\" as a password) will be encrypted and sent as \"0xedf92158c3f1170092fb3b3f15ff96adf2ee73ea0c92d07d2dfc84612938abf9\"!!!! No two hashes can be the same in a ballot. A hash must be unique"
      },
      "constructor": {
        "notice": "Setup the owner of the contract and its description"
      },
      "endVote()": {
        "notice": "Ends the vote. Committed votes cannot be revealed anymore"
      },
      "revealVote(string,string,bytes32)": {
        "notice": "Reveal your vote. "
      },
      "showChoices()": {
        "notice": "Show the list of choices"
      },
      "startReveal()": {
        "notice": "Start revealing votes"
      },
      "startVote()": {
        "notice": "Start the vote"
      }
    },
    "notice": "Votes must be encrypted using keccak256",
    "version": 1
  }
}