{
  "contractName": "PollFactory",
  "abi": [
    {
      "anonymous": false,
      "inputs": [
        {
          "indexed": false,
          "internalType": "address",
          "name": "_address",
          "type": "address"
        }
      ],
      "name": "deployedContract",
      "type": "event"
    },
    {
      "inputs": [
        {
          "internalType": "uint256",
          "name": "",
          "type": "uint256"
        }
      ],
      "name": "deployedPolls",
      "outputs": [
        {
          "internalType": "address",
          "name": "",
          "type": "address"
        }
      ],
      "stateMutability": "view",
      "type": "function",
      "constant": true
    },
    {
      "inputs": [
        {
          "internalType": "string",
          "name": "_details",
          "type": "string"
        }
      ],
      "name": "createNewPoll",
      "outputs": [
        {
          "internalType": "address",
          "name": "",
          "type": "address"
        }
      ],
      "stateMutability": "nonpayable",
      "type": "function"
    },
    {
      "inputs": [],
      "name": "getPolls",
      "outputs": [
        {
          "internalType": "address[]",
          "name": "",
          "type": "address[]"
        }
      ],
      "stateMutability": "view",
      "type": "function",
      "constant": true
    }
  ],
  "bytecode": "0x608060405234801561001057600080fd5b50613afa806100206000396000f3fe60806040523480156200001157600080fd5b5060043610620000465760003560e01c8063120fe89b146200004b57806383ba2fe8146200006d578063ed81915114620000a3575b600080fd5b62000055620000d9565b604051620000649190620004a0565b60405180910390f35b6200008b60048036038101906200008591906200032b565b62000169565b6040516200009a919062000483565b60405180910390f35b620000c16004803603810190620000bb919062000370565b62000254565b604051620000d0919062000483565b60405180910390f35b606060008054806020026020016040519081016040528092919081815260200182805480156200015f57602002820191906000526020600020905b8160009054906101000a900473ffffffffffffffffffffffffffffffffffffffff1673ffffffffffffffffffffffffffffffffffffffff168152602001906001019080831162000114575b5050505050905090565b60008082336040516200017c9062000294565b62000189929190620004c4565b604051809103906000f080158015620001a6573d6000803e3d6000fd5b50905060008190506000819080600181540180825580915050600190039060005260206000200160009091909190916101000a81548173ffffffffffffffffffffffffffffffffffffffff021916908373ffffffffffffffffffffffffffffffffffffffff1602179055507fc2295c21597e893fb3ac056c24bc384f0ff3796f36a6513a249e8178c5dbb12f8160405162000242919062000483565b60405180910390a18092505050919050565b600081815481106200026557600080fd5b906000526020600020016000915054906101000a900473ffffffffffffffffffffffffffffffffffffffff1681565b613433806200069283390190565b6000620002b9620002b3846200052c565b620004f8565b905082815260208101848484011115620002d257600080fd5b620002df848285620005f2565b509392505050565b600082601f830112620002f957600080fd5b81356200030b848260208601620002a2565b91505092915050565b600081359050620003258162000677565b92915050565b6000602082840312156200033e57600080fd5b600082013567ffffffffffffffff8111156200035957600080fd5b6200036784828501620002e7565b91505092915050565b6000602082840312156200038357600080fd5b6000620003938482850162000314565b91505092915050565b6000620003aa8383620003b6565b60208301905092915050565b620003c181620005b4565b82525050565b620003d281620005b4565b82525050565b6000620003e5826200056f565b620003f1818562000592565b9350620003fe836200055f565b8060005b83811015620004355781516200041988826200039c565b9750620004268362000585565b92505060018101905062000402565b5085935050505092915050565b60006200044f826200057a565b6200045b8185620005a3565b93506200046d81856020860162000601565b620004788162000666565b840191505092915050565b60006020820190506200049a6000830184620003c7565b92915050565b60006020820190508181036000830152620004bc8184620003d8565b905092915050565b60006040820190508181036000830152620004e0818562000442565b9050620004f16020830184620003c7565b9392505050565b6000604051905081810181811067ffffffffffffffff8211171562000522576200052162000637565b5b8060405250919050565b600067ffffffffffffffff8211156200054a576200054962000637565b5b601f19601f8301169050602081019050919050565b6000819050602082019050919050565b600081519050919050565b600081519050919050565b6000602082019050919050565b600082825260208201905092915050565b600082825260208201905092915050565b6000620005c182620005c8565b9050919050565b600073ffffffffffffffffffffffffffffffffffffffff82169050919050565b6000819050919050565b82818337600083830152505050565b60005b838110156200062157808201518184015260208101905062000604565b8381111562000631576000848401525b50505050565b7f4e487b7100000000000000000000000000000000000000000000000000000000600052604160045260246000fd5b6000601f19601f8301169050919050565b6200068281620005e8565b81146200068e57600080fd5b5056fe60806040526000600560006101000a81548163ffffffff021916908363ffffffff1602179055506000600560046101000a81548163ffffffff021916908363ffffffff1602179055503480156200005557600080fd5b50604051620034333803806200343383398181016040528101906200007b919062000268565b80600560086101000a81548173ffffffffffffffffffffffffffffffffffffffff021916908373ffffffffffffffffffffffffffffffffffffffff1602179055508160069080519060200190620000d49291906200012f565b506000600760006101000a81548160ff0219169083600381111562000122577f4e487b7100000000000000000000000000000000000000000000000000000000600052602160045260246000fd5b0217905550505062000441565b8280546200013d9062000393565b90600052602060002090601f016020900481019282620001615760008555620001ad565b82601f106200017c57805160ff1916838001178555620001ad565b82800160010185558215620001ad579182015b82811115620001ac5782518255916020019190600101906200018f565b5b509050620001bc9190620001c0565b5090565b5b80821115620001db576000816000905550600101620001c1565b5090565b6000620001f6620001f084620002f6565b620002c2565b9050828152602081018484840111156200020f57600080fd5b6200021c8482856200035d565b509392505050565b600081519050620002358162000427565b92915050565b600082601f8301126200024d57600080fd5b81516200025f848260208601620001df565b91505092915050565b600080604083850312156200027c57600080fd5b600083015167ffffffffffffffff8111156200029757600080fd5b620002a5858286016200023b565b9250506020620002b88582860162000224565b9150509250929050565b6000604051905081810181811067ffffffffffffffff82111715620002ec57620002eb620003f8565b5b8060405250919050565b600067ffffffffffffffff821115620003145762000313620003f8565b5b601f19601f8301169050602081019050919050565b600062000336826200033d565b9050919050565b600073ffffffffffffffffffffffffffffffffffffffff82169050919050565b60005b838110156200037d57808201518184015260208101905062000360565b838111156200038d576000848401525b50505050565b60006002820490506001821680620003ac57607f821691505b60208210811415620003c357620003c2620003c9565b5b50919050565b7f4e487b7100000000000000000000000000000000000000000000000000000000600052602260045260246000fd5b7f4e487b7100000000000000000000000000000000000000000000000000000000600052604160045260246000fd5b620004328162000329565b81146200043e57600080fd5b50565b612fe280620004516000396000f3fe608060405234801561001057600080fd5b50600436106101005760003560e01c80635f5300ff11610097578063ad72202b11610066578063ad72202b14610264578063b92239461461026e578063dfbf53ae1461028d578063f6fd7fde146102ac57610100565b80635f5300ff146101d95780638f58d353146101f757806398c81bbf14610215578063a3ec138d1461023357610100565b8063285ad937116100d3578063285ad937146101795780633817e347146101975780633e858923146101b35780634c0a6af0146101cf57610100565b80630d15fd771461010557806312f9d54f1461012357806313f35c1c1461013f5780631d4dd4031461015b575b600080fd5b61010d6102dd565b60405161011a9190612a09565b60405180910390f35b61013d60048036038101906101389190612036565b6102f3565b005b61015960048036038101906101549190612077565b610502565b005b6101636108c2565b604051610170919061282e565b60405180910390f35b610181610950565b60405161018e9190612792565b60405180910390f35b6101b160048036038101906101ac91906120e1565b610976565b005b6101cd60048036038101906101c891906120b8565b610e20565b005b6101d7611247565b005b6101e16113b7565b6040516101ee9190612a09565b60405180910390f35b6101ff6113cd565b60405161020c9190612813565b60405180910390f35b61021d6113e0565b60405161022a91906127f1565b60405180910390f35b61024d6004803603810190610248919061200d565b6114f7565b60405161025b929190612850565b60405180910390f35b61026c6115b0565b005b610276611720565b604051610284929190612880565b60405180910390f35b610295611aad565b6040516102a3929190612880565b60405180910390f35b6102c660048036038101906102c1919061214d565b611b57565b6040516102d4929190612880565b60405180910390f35b600560049054906101000a900463ffffffff1681565b600560089054906101000a900473ffffffffffffffffffffffffffffffffffffffff1673ffffffffffffffffffffffffffffffffffffffff163373ffffffffffffffffffffffffffffffffffffffff161461034d57600080fd5b6000806003811115610388577f4e487b7100000000000000000000000000000000000000000000000000000000600052602160045260246000fd5b600760009054906101000a900460ff1660038111156103d0577f4e487b7100000000000000000000000000000000000000000000000000000000600052602160045260246000fd5b146103da57600080fd5b60005b82518110156104c6576000604051806040016040528085848151811061042c577f4e487b7100000000000000000000000000000000000000000000000000000000600052603260045260246000fd5b60200260200101518152602001600063ffffffff1681525090806001815401808255809150506001900390600052602060002090600202016000909190919091506000820151816000019080519060200190610489929190611ce9565b5060208201518160010160006101000a81548163ffffffff021916908363ffffffff160217905550505080806104be90612de6565b9150506103dd565b507f77dee649aae3f16c359de4348be23b2c17a332472904177ed5076133d1bf2556826040516104f691906127ad565b60405180910390a15050565b600560089054906101000a900473ffffffffffffffffffffffffffffffffffffffff1673ffffffffffffffffffffffffffffffffffffffff163373ffffffffffffffffffffffffffffffffffffffff161461055c57600080fd5b6000806003811115610597577f4e487b7100000000000000000000000000000000000000000000000000000000600052602160045260246000fd5b600760009054906101000a900460ff1660038111156105df577f4e487b7100000000000000000000000000000000000000000000000000000000600052602160045260246000fd5b146105e957600080fd5b60005b8251811015610886576000838281518110610630577f4e487b7100000000000000000000000000000000000000000000000000000000600052603260045260246000fd5b60200260200101516020015151141561067e576040517f08c379a0000000000000000000000000000000000000000000000000000000008152600401610675906128e9565b60405180910390fd5b6000600460008584815181106106bd577f4e487b7100000000000000000000000000000000000000000000000000000000600052603260045260246000fd5b60200260200101516000015173ffffffffffffffffffffffffffffffffffffffff1673ffffffffffffffffffffffffffffffffffffffff168152602001908152602001600020600001805461071190612db4565b905014610753576040517f08c379a000000000000000000000000000000000000000000000000000000000815260040161074a906129e9565b60405180910390fd5b82818151811061078c577f4e487b7100000000000000000000000000000000000000000000000000000000600052603260045260246000fd5b602002602001015160200151600460008584815181106107d5577f4e487b7100000000000000000000000000000000000000000000000000000000600052603260045260246000fd5b60200260200101516000015173ffffffffffffffffffffffffffffffffffffffff1673ffffffffffffffffffffffffffffffffffffffff1681526020019081526020016000206000019080519060200190610831929190611ce9565b506005600081819054906101000a900463ffffffff168092919061085490612e2f565b91906101000a81548163ffffffff021916908363ffffffff16021790555050808061087e90612de6565b9150506105ec565b507f52c6c7b24d93141036bc6e22785c0476e569db2cb6aeef78036f3916457300e1826040516108b691906127cf565b60405180910390a15050565b600680546108cf90612db4565b80601f01602080910402602001604051908101604052809291908181526020018280546108fb90612db4565b80156109485780601f1061091d57610100808354040283529160200191610948565b820191906000526020600020905b81548152906001019060200180831161092b57829003601f168201915b505050505081565b600560089054906101000a900473ffffffffffffffffffffffffffffffffffffffff1681565b60028060038111156109b1577f4e487b7100000000000000000000000000000000000000000000000000000000600052602160045260246000fd5b600760009054906101000a900460ff1660038111156109f9577f4e487b7100000000000000000000000000000000000000000000000000000000600052602160045260246000fd5b14610a0357600080fd5b600082604051602001610a16919061277b565b6040516020818303038152906040528051906020012090503373ffffffffffffffffffffffffffffffffffffffff166003600083815260200190815260200160002060000160009054906101000a900473ffffffffffffffffffffffffffffffffffffffff1673ffffffffffffffffffffffffffffffffffffffff1614610ad2576040517f08c379a0000000000000000000000000000000000000000000000000000000008152600401610ac990612929565b60405180910390fd5b60006001811115610b0c577f4e487b7100000000000000000000000000000000000000000000000000000000600052602160045260246000fd5b6003600083815260200190815260200160002060000160149054906101000a900460ff166001811115610b68577f4e487b7100000000000000000000000000000000000000000000000000000000600052602160045260246000fd5b14610ba8576040517f08c379a0000000000000000000000000000000000000000000000000000000008152600401610b9f90612969565b60405180910390fd5b6000849050600084905060005b82518160ff161015610ce657818160ff1681518110610bfd577f4e487b7100000000000000000000000000000000000000000000000000000000600052603260045260246000fd5b602001015160f81c60f81b7effffffffffffffffffffffffffffffffffffffffffffffffffffffffffffff1916838260ff1681518110610c66577f4e487b7100000000000000000000000000000000000000000000000000000000600052603260045260246000fd5b602001015160f81c60f81b7effffffffffffffffffffffffffffffffffffffffffffffffffffffffffffff191614610cd3576040517f08c379a0000000000000000000000000000000000000000000000000000000008152600401610cca90612909565b60405180910390fd5b8080610cde90612e5c565b915050610bb5565b506000610cf287611c23565b9050600160008260ff1681548110610d33577f4e487b7100000000000000000000000000000000000000000000000000000000600052603260045260246000fd5b906000526020600020906002020160010160008282829054906101000a900463ffffffff16610d629190612c16565b92506101000a81548163ffffffff021916908363ffffffff160217905550600180811115610db9577f4e487b7100000000000000000000000000000000000000000000000000000000600052602160045260246000fd5b6003600086815260200190815260200160002060000160149054906101000a900460ff166001811115610e15577f4e487b7100000000000000000000000000000000000000000000000000000000600052602160045260246000fd5b505050505050505050565b6001806003811115610e5b577f4e487b7100000000000000000000000000000000000000000000000000000000600052602160045260246000fd5b600760009054906101000a900460ff166003811115610ea3577f4e487b7100000000000000000000000000000000000000000000000000000000600052602160045260246000fd5b14610ead57600080fd5b6000600460003373ffffffffffffffffffffffffffffffffffffffff1673ffffffffffffffffffffffffffffffffffffffff16815260200190815260200160002090506000816000018054610f0190612db4565b90501415610f44576040517f08c379a0000000000000000000000000000000000000000000000000000000008152600401610f3b90612989565b60405180910390fd5b8060010160009054906101000a900460ff1615610f96576040517f08c379a0000000000000000000000000000000000000000000000000000000008152600401610f8d906128c9565b60405180910390fd5b600073ffffffffffffffffffffffffffffffffffffffff166003600085815260200190815260200160002060000160009054906101000a900473ffffffffffffffffffffffffffffffffffffffff1673ffffffffffffffffffffffffffffffffffffffff161461103b576040517f08c379a000000000000000000000000000000000000000000000000000000000815260040161103290612949565b60405180910390fd5b611043611d6f565b33816000019073ffffffffffffffffffffffffffffffffffffffff16908173ffffffffffffffffffffffffffffffffffffffff16815250506000816020019060018111156110ba577f4e487b7100000000000000000000000000000000000000000000000000000000600052602160045260246000fd5b908160018111156110f4577f4e487b7100000000000000000000000000000000000000000000000000000000600052602160045260246000fd5b81525050806003600086815260200190815260200160002060008201518160000160006101000a81548173ffffffffffffffffffffffffffffffffffffffff021916908373ffffffffffffffffffffffffffffffffffffffff16021790555060208201518160000160146101000a81548160ff021916908360018111156111a4577f4e487b7100000000000000000000000000000000000000000000000000000000600052602160045260246000fd5b021790555090505060018260010160006101000a81548160ff0219169083151502179055506005600481819054906101000a900463ffffffff16809291906111eb90612e2f565b91906101000a81548163ffffffff021916908363ffffffff160217905550507f31e6286c8ecb5d48a59917fa389f0c011812ddd8330b8c71c185d21b19b846fa8460405161123991906129a9565b60405180910390a150505050565b600560089054906101000a900473ffffffffffffffffffffffffffffffffffffffff1673ffffffffffffffffffffffffffffffffffffffff163373ffffffffffffffffffffffffffffffffffffffff16146112a157600080fd5b60008060038111156112dc577f4e487b7100000000000000000000000000000000000000000000000000000000600052602160045260246000fd5b600760009054906101000a900460ff166003811115611324577f4e487b7100000000000000000000000000000000000000000000000000000000600052602160045260246000fd5b1461132e57600080fd5b6001600760006101000a81548160ff0219169083600381111561137a577f4e487b7100000000000000000000000000000000000000000000000000000000600052602160045260246000fd5b02179055507f0d6a0e72f1f57a45518382c31c3d7d499a3e45d95fb4caddb0372bd448e7e5b06040516113ac906128b0565b60405180910390a150565b600560009054906101000a900463ffffffff1681565b600760009054906101000a900460ff1681565b60606000805480602002602001604051908101604052809291908181526020016000905b828210156114ee578382906000526020600020906002020160405180604001604052908160008201805461143790612db4565b80601f016020809104026020016040519081016040528092919081815260200182805461146390612db4565b80156114b05780601f10611485576101008083540402835291602001916114b0565b820191906000526020600020905b81548152906001019060200180831161149357829003601f168201915b505050505081526020016001820160009054906101000a900463ffffffff1663ffffffff1663ffffffff168152505081526020019060010190611404565b50505050905090565b600460205280600052604060002060009150905080600001805461151a90612db4565b80601f016020809104026020016040519081016040528092919081815260200182805461154690612db4565b80156115935780601f1061156857610100808354040283529160200191611593565b820191906000526020600020905b81548152906001019060200180831161157657829003601f168201915b5050505050908060010160009054906101000a900460ff16905082565b600560089054906101000a900473ffffffffffffffffffffffffffffffffffffffff1673ffffffffffffffffffffffffffffffffffffffff163373ffffffffffffffffffffffffffffffffffffffff161461160a57600080fd5b6001806003811115611645577f4e487b7100000000000000000000000000000000000000000000000000000000600052602160045260246000fd5b600760009054906101000a900460ff16600381111561168d577f4e487b7100000000000000000000000000000000000000000000000000000000600052602160045260246000fd5b1461169757600080fd5b6002600760006101000a81548160ff021916908360038111156116e3577f4e487b7100000000000000000000000000000000000000000000000000000000600052602160045260246000fd5b02179055507f8e8f5aee9431ee3cdd3482144e1a06dbb60dfca779dbb69ff38677931f948ff3604051611715906129d0565b60405180910390a150565b60606000600560089054906101000a900473ffffffffffffffffffffffffffffffffffffffff1673ffffffffffffffffffffffffffffffffffffffff163373ffffffffffffffffffffffffffffffffffffffff161461177e57600080fd5b60028060038111156117b9577f4e487b7100000000000000000000000000000000000000000000000000000000600052602160045260246000fd5b600760009054906101000a900460ff166003811115611801577f4e487b7100000000000000000000000000000000000000000000000000000000600052602160045260246000fd5b1461180b57600080fd5b60008060005b600080549050811015611902578263ffffffff166000828154811061185f577f4e487b7100000000000000000000000000000000000000000000000000000000600052603260045260246000fd5b906000526020600020906002020160010160009054906101000a900463ffffffff1663ffffffff1611156118ef57600081815481106118c7577f4e487b7100000000000000000000000000000000000000000000000000000000600052603260045260246000fd5b906000526020600020906002020160010160009054906101000a900463ffffffff1692508091505b80806118fa90612de6565b915050611811565b506000818154811061193d577f4e487b7100000000000000000000000000000000000000000000000000000000600052603260045260246000fd5b9060005260206000209060020201600001805461195990612db4565b80601f016020809104026020016040519081016040528092919081815260200182805461198590612db4565b80156119d25780601f106119a7576101008083540402835291602001916119d2565b820191906000526020600020905b8154815290600101906020018083116119b557829003601f168201915b5050505050945084600160000190805190602001906119f2929190611ce9565b50816001800160006101000a81548163ffffffff021916908363ffffffff1602179055506003600760006101000a81548160ff02191690836003811115611a62577f4e487b7100000000000000000000000000000000000000000000000000000000600052602160045260246000fd5b02179055507f2a7e354b64c657742b73fe53ae41272be152db4a043264298a57cc6a9f7c44638583604051611a98929190612880565b60405180910390a18482945094505050509091565b6001806000018054611abe90612db4565b80601f0160208091040260200160405190810160405280929190818152602001828054611aea90612db4565b8015611b375780601f10611b0c57610100808354040283529160200191611b37565b820191906000526020600020905b815481529060010190602001808311611b1a57829003601f168201915b5050505050908060010160009054906101000a900463ffffffff16905082565b60008181548110611b6757600080fd5b9060005260206000209060020201600091509050806000018054611b8a90612db4565b80601f0160208091040260200160405190810160405280929190818152602001828054611bb690612db4565b8015611c035780601f10611bd857610100808354040283529160200191611c03565b820191906000526020600020905b815481529060010190602001808311611be657829003601f168201915b5050505050908060010160009054906101000a900463ffffffff16905082565b6000808290506000809250600090505b8151811015611ce2576000828281518110611c77577f4e487b7100000000000000000000000000000000000000000000000000000000600052603260045260246000fd5b602001015160f81c60f81b60f81c905060308160ff1610158015611c9f575060398160ff1611155b15611cce57603081611cb19190612caa565b60ff16600a85611cc19190612c50565b611ccb9190612bc0565b93505b508080611cda90612de6565b915050611c33565b5050919050565b828054611cf590612db4565b90600052602060002090601f016020900481019282611d175760008555611d5e565b82601f10611d3057805160ff1916838001178555611d5e565b82800160010185558215611d5e579182015b82811115611d5d578251825591602001919060010190611d42565b5b509050611d6b9190611dd7565b5090565b6040518060400160405280600073ffffffffffffffffffffffffffffffffffffffff16815260200160006001811115611dd1577f4e487b7100000000000000000000000000000000000000000000000000000000600052602160045260246000fd5b81525090565b5b80821115611df0576000816000905550600101611dd8565b5090565b6000611e07611e0284612a55565b612a24565b9050808382526020820190508260005b85811015611e475781358501611e2d8882611f6a565b845260208401935060208301925050600181019050611e17565b5050509392505050565b6000611e64611e5f84612a81565b612a24565b9050808382526020820190508260005b85811015611ea45781358501611e8a8882611f94565b845260208401935060208301925050600181019050611e74565b5050509392505050565b6000611ec1611ebc84612aad565b612a24565b905082815260208101848484011115611ed957600080fd5b611ee4848285612d72565b509392505050565b600081359050611efb81612f67565b92915050565b600082601f830112611f1257600080fd5b8135611f22848260208601611df4565b91505092915050565b600082601f830112611f3c57600080fd5b8135611f4c848260208601611e51565b91505092915050565b600081359050611f6481612f7e565b92915050565b600082601f830112611f7b57600080fd5b8135611f8b848260208601611eae565b91505092915050565b600060408284031215611fa657600080fd5b611fb06040612a24565b90506000611fc084828501611eec565b600083015250602082013567ffffffffffffffff811115611fe057600080fd5b611fec84828501611f6a565b60208301525092915050565b60008135905061200781612f95565b92915050565b60006020828403121561201f57600080fd5b600061202d84828501611eec565b91505092915050565b60006020828403121561204857600080fd5b600082013567ffffffffffffffff81111561206257600080fd5b61206e84828501611f01565b91505092915050565b60006020828403121561208957600080fd5b600082013567ffffffffffffffff8111156120a357600080fd5b6120af84828501611f2b565b91505092915050565b6000602082840312156120ca57600080fd5b60006120d884828501611f55565b91505092915050565b600080604083850312156120f457600080fd5b600083013567ffffffffffffffff81111561210e57600080fd5b61211a85828601611f6a565b925050602083013567ffffffffffffffff81111561213757600080fd5b61214385828601611f6a565b9150509250929050565b60006020828403121561215f57600080fd5b600061216d84828501611ff8565b91505092915050565b6000612182838361235c565b905092915050565b600061219683836126e3565b905092915050565b60006121aa8383612720565b905092915050565b6121bb81612cde565b82525050565b6121ca81612cde565b82525050565b60006121db82612b0d565b6121e58185612b60565b9350836020820285016121f785612add565b8060005b8581101561223357848403895281516122148582612176565b945061221f83612b39565b925060208a019950506001810190506121fb565b50829750879550505050505092915050565b600061225082612b18565b61225a8185612b71565b93508360208202850161226c85612aed565b8060005b858110156122a85784840389528151612289858261218a565b945061229483612b46565b925060208a01995050600181019050612270565b50829750879550505050505092915050565b60006122c582612b23565b6122cf8185612b82565b9350836020820285016122e185612afd565b8060005b8581101561231d57848403895281516122fe858261219e565b945061230983612b53565b925060208a019950506001810190506122e5565b50829750879550505050505092915050565b61233881612cf0565b82525050565b61234781612cfc565b82525050565b61235681612d60565b82525050565b600061236782612b2e565b6123718185612b93565b9350612381818560208601612d81565b61238a81612f42565b840191505092915050565b60006123a082612b2e565b6123aa8185612ba4565b93506123ba818560208601612d81565b6123c381612f42565b840191505092915050565b60006123d982612b2e565b6123e38185612bb5565b93506123f3818560208601612d81565b80840191505092915050565b7f566f74696e672068617320737461727465640000000000000000000000000000815250565b6000612432600e83612ba4565b91507f416c726561647920766f7465642e0000000000000000000000000000000000006000830152602082019050919050565b6000612472600d83612ba4565b91507f456e7465722061206e616d6521000000000000000000000000000000000000006000830152602082019050919050565b60006124b2602a83612ba4565b91507f596f75722063686f696365206e756d62657220646f65736e2774206d6174636860008301527f20796f757220766f7465000000000000000000000000000000000000000000006020830152604082019050919050565b6000612518602683612ba4565b91507f5468697320766f746520646f65736e2774206578697374206f722069736e277460008301527f20796f75727300000000000000000000000000000000000000000000000000006020830152604082019050919050565b600061257e602e83612ba4565b91507f546865726520616c726561647920657869737473206120766f7465207769746860008301527f20746869732070617373776f72640000000000000000000000000000000000006020830152604082019050919050565b60006125e4601e83612ba4565b91507f5468697320766f74652077617320616c72656164792072657665616c656400006000830152602082019050919050565b6000612624601683612ba4565b91507f41646472657373206e6f742072656769737465726564000000000000000000006000830152602082019050919050565b7f566f746520636f6d6d6974746564207769746820686173682000000000000000815250565b7f506c656173652072657665616c20796f757220766f746573206e6f7700000000815250565b60006126b0601983612ba4565b91507f566f74657220616c7265616479207265676973746572656421000000000000006000830152602082019050919050565b60006040830160008301516126fb60008601826121b2565b5060208301518482036020860152612713828261235c565b9150508091505092915050565b6000604083016000830151848203600086015261273d828261235c565b9150506020830151612752602086018261275d565b508091505092915050565b61276681612d43565b82525050565b61277581612d43565b82525050565b600061278782846123ce565b915081905092915050565b60006020820190506127a760008301846121c1565b92915050565b600060208201905081810360008301526127c781846121d0565b905092915050565b600060208201905081810360008301526127e98184612245565b905092915050565b6000602082019050818103600083015261280b81846122ba565b905092915050565b6000602082019050612828600083018461234d565b92915050565b600060208201905081810360008301526128488184612395565b905092915050565b6000604082019050818103600083015261286a8185612395565b9050612879602083018461232f565b9392505050565b6000604082019050818103600083015261289a8185612395565b90506128a9602083018461276c565b9392505050565b60006020820190506128c4600083016123ff565b919050565b600060208201905081810360008301526128e281612425565b9050919050565b6000602082019050818103600083015261290281612465565b9050919050565b60006020820190508181036000830152612922816124a5565b9050919050565b600060208201905081810360008301526129428161250b565b9050919050565b6000602082019050818103600083015261296281612571565b9050919050565b60006020820190508181036000830152612982816125d7565b9050919050565b600060208201905081810360008301526129a281612617565b9050919050565b60006040820190506129bd60008301612657565b6129ca602083018461233e565b92915050565b60006020820190506129e46000830161267d565b919050565b60006020820190508181036000830152612a02816126a3565b9050919050565b6000602082019050612a1e600083018461276c565b92915050565b6000604051905081810181811067ffffffffffffffff82111715612a4b57612a4a612f13565b5b8060405250919050565b600067ffffffffffffffff821115612a7057612a6f612f13565b5b602082029050602081019050919050565b600067ffffffffffffffff821115612a9c57612a9b612f13565b5b602082029050602081019050919050565b600067ffffffffffffffff821115612ac857612ac7612f13565b5b601f19601f8301169050602081019050919050565b6000819050602082019050919050565b6000819050602082019050919050565b6000819050602082019050919050565b600081519050919050565b600081519050919050565b600081519050919050565b600081519050919050565b6000602082019050919050565b6000602082019050919050565b6000602082019050919050565b600082825260208201905092915050565b600082825260208201905092915050565b600082825260208201905092915050565b600082825260208201905092915050565b600082825260208201905092915050565b600081905092915050565b6000612bcb82612d39565b9150612bd683612d39565b9250827fffffffffffffffffffffffffffffffffffffffffffffffffffffffffffffffff03821115612c0b57612c0a612e86565b5b828201905092915050565b6000612c2182612d43565b9150612c2c83612d43565b92508263ffffffff03821115612c4557612c44612e86565b5b828201905092915050565b6000612c5b82612d39565b9150612c6683612d39565b9250817fffffffffffffffffffffffffffffffffffffffffffffffffffffffffffffffff0483118215151615612c9f57612c9e612e86565b5b828202905092915050565b6000612cb582612d53565b9150612cc083612d53565b925082821015612cd357612cd2612e86565b5b828203905092915050565b6000612ce982612d19565b9050919050565b60008115159050919050565b6000819050919050565b6000819050612d1482612f53565b919050565b600073ffffffffffffffffffffffffffffffffffffffff82169050919050565b6000819050919050565b600063ffffffff82169050919050565b600060ff82169050919050565b6000612d6b82612d06565b9050919050565b82818337600083830152505050565b60005b83811015612d9f578082015181840152602081019050612d84565b83811115612dae576000848401525b50505050565b60006002820490506001821680612dcc57607f821691505b60208210811415612de057612ddf612ee4565b5b50919050565b6000612df182612d39565b91507fffffffffffffffffffffffffffffffffffffffffffffffffffffffffffffffff821415612e2457612e23612e86565b5b600182019050919050565b6000612e3a82612d43565b915063ffffffff821415612e5157612e50612e86565b5b600182019050919050565b6000612e6782612d53565b915060ff821415612e7b57612e7a612e86565b5b600182019050919050565b7f4e487b7100000000000000000000000000000000000000000000000000000000600052601160045260246000fd5b7f4e487b7100000000000000000000000000000000000000000000000000000000600052602160045260246000fd5b7f4e487b7100000000000000000000000000000000000000000000000000000000600052602260045260246000fd5b7f4e487b7100000000000000000000000000000000000000000000000000000000600052604160045260246000fd5b6000601f19601f8301169050919050565b60048110612f6457612f63612eb5565b5b50565b612f7081612cde565b8114612f7b57600080fd5b50565b612f8781612cfc565b8114612f9257600080fd5b50565b612f9e81612d39565b8114612fa957600080fd5b5056fea2646970667358221220c1c3855d554e0218b029458fcc7d519901d51c6c01db17c505fceee92848f50964736f6c63430008000033a264697066735822122038093ecf690d955b396da4ad32abda266588cd74a8e3be33e70f2e488f73311364736f6c63430008000033",
  "immutableReferences": {},
  "source": "// SPDX-License-Identifier: MIT\npragma solidity ^0.8.0;\n\nimport \"./Poll.sol\";\n\ncontract PollFactory {\n  address[] public deployedPolls;\n  \n  event deployedContract(address _address);\n  \n  function createNewPoll(string memory _details) public returns(address) {\n    //Deploy a new poll\n    Poll newPoll = new Poll(_details, msg.sender);\n    //Get the address\n    address pollAddress = address(newPoll);\n    deployedPolls.push(pollAddress);\n    emit deployedContract(pollAddress);\n    return pollAddress;\n  }\n\n  function getPolls() public view returns(address[] memory) {\n      return deployedPolls;\n  }\n}\n",
  "sourcePath": "/Users/andreibudoi/Documents/Licenta/react-eth-commit-reveal-voting/contracts/PollFactory.sol",
  "compiler": {
    "name": "solc",
    "version": "0.8.0+commit.c7dfd78e.Emscripten.clang"
  },
  "schemaVersion": "3.3.4",
  "updatedAt": "2021-03-14T12:53:04.349Z",
  "networkType": "ethereum",
  "devdoc": {
    "kind": "dev",
    "methods": {},
    "version": 1
  },
  "userdoc": {
    "kind": "user",
    "methods": {},
    "version": 1
  }
}