{
  "contractName": "PollFactory",
  "abi": [
    {
      "anonymous": false,
      "inputs": [
        {
          "indexed": false,
          "internalType": "address",
          "name": "_address",
          "type": "address"
        }
      ],
      "name": "deployedContract",
      "type": "event"
    },
    {
      "inputs": [
        {
          "internalType": "uint256",
          "name": "",
          "type": "uint256"
        }
      ],
      "name": "deployedPolls",
      "outputs": [
        {
          "internalType": "address",
          "name": "",
          "type": "address"
        }
      ],
      "stateMutability": "view",
      "type": "function",
      "constant": true
    },
    {
      "inputs": [
        {
          "internalType": "string",
          "name": "_details",
          "type": "string"
        }
      ],
      "name": "createNewPoll",
      "outputs": [
        {
          "internalType": "address",
          "name": "",
          "type": "address"
        }
      ],
      "stateMutability": "nonpayable",
      "type": "function"
    },
    {
      "inputs": [],
      "name": "getPolls",
      "outputs": [
        {
          "internalType": "address[]",
          "name": "",
          "type": "address[]"
        }
      ],
      "stateMutability": "view",
      "type": "function",
      "constant": true
    }
  ],
  "bytecode": "0x608060405234801561001057600080fd5b50613c66806100206000396000f3fe60806040523480156200001157600080fd5b5060043610620000465760003560e01c8063120fe89b146200004b57806383ba2fe8146200006d578063ed81915114620000a3575b600080fd5b62000055620000d9565b604051620000649190620004a0565b60405180910390f35b6200008b60048036038101906200008591906200032b565b62000169565b6040516200009a919062000483565b60405180910390f35b620000c16004803603810190620000bb919062000370565b62000254565b604051620000d0919062000483565b60405180910390f35b606060008054806020026020016040519081016040528092919081815260200182805480156200015f57602002820191906000526020600020905b8160009054906101000a900473ffffffffffffffffffffffffffffffffffffffff1673ffffffffffffffffffffffffffffffffffffffff168152602001906001019080831162000114575b5050505050905090565b60008082336040516200017c9062000294565b62000189929190620004c4565b604051809103906000f080158015620001a6573d6000803e3d6000fd5b50905060008190506000819080600181540180825580915050600190039060005260206000200160009091909190916101000a81548173ffffffffffffffffffffffffffffffffffffffff021916908373ffffffffffffffffffffffffffffffffffffffff1602179055507fc2295c21597e893fb3ac056c24bc384f0ff3796f36a6513a249e8178c5dbb12f8160405162000242919062000483565b60405180910390a18092505050919050565b600081815481106200026557600080fd5b906000526020600020016000915054906101000a900473ffffffffffffffffffffffffffffffffffffffff1681565b61359f806200069283390190565b6000620002b9620002b3846200052c565b620004f8565b905082815260208101848484011115620002d257600080fd5b620002df848285620005f2565b509392505050565b600082601f830112620002f957600080fd5b81356200030b848260208601620002a2565b91505092915050565b600081359050620003258162000677565b92915050565b6000602082840312156200033e57600080fd5b600082013567ffffffffffffffff8111156200035957600080fd5b6200036784828501620002e7565b91505092915050565b6000602082840312156200038357600080fd5b6000620003938482850162000314565b91505092915050565b6000620003aa8383620003b6565b60208301905092915050565b620003c181620005b4565b82525050565b620003d281620005b4565b82525050565b6000620003e5826200056f565b620003f1818562000592565b9350620003fe836200055f565b8060005b83811015620004355781516200041988826200039c565b9750620004268362000585565b92505060018101905062000402565b5085935050505092915050565b60006200044f826200057a565b6200045b8185620005a3565b93506200046d81856020860162000601565b620004788162000666565b840191505092915050565b60006020820190506200049a6000830184620003c7565b92915050565b60006020820190508181036000830152620004bc8184620003d8565b905092915050565b60006040820190508181036000830152620004e0818562000442565b9050620004f16020830184620003c7565b9392505050565b6000604051905081810181811067ffffffffffffffff8211171562000522576200052162000637565b5b8060405250919050565b600067ffffffffffffffff8211156200054a576200054962000637565b5b601f19601f8301169050602081019050919050565b6000819050602082019050919050565b600081519050919050565b600081519050919050565b6000602082019050919050565b600082825260208201905092915050565b600082825260208201905092915050565b6000620005c182620005c8565b9050919050565b600073ffffffffffffffffffffffffffffffffffffffff82169050919050565b6000819050919050565b82818337600083830152505050565b60005b838110156200062157808201518184015260208101905062000604565b8381111562000631576000848401525b50505050565b7f4e487b7100000000000000000000000000000000000000000000000000000000600052604160045260246000fd5b6000601f19601f8301169050919050565b6200068281620005e8565b81146200068e57600080fd5b5056fe60806040526000600560006101000a81548163ffffffff021916908363ffffffff1602179055506000600560046101000a81548163ffffffff021916908363ffffffff1602179055503480156200005557600080fd5b506040516200359f3803806200359f83398181016040528101906200007b919062000268565b80600560086101000a81548173ffffffffffffffffffffffffffffffffffffffff021916908373ffffffffffffffffffffffffffffffffffffffff1602179055508160069080519060200190620000d49291906200012f565b506000600760006101000a81548160ff0219169083600381111562000122577f4e487b7100000000000000000000000000000000000000000000000000000000600052602160045260246000fd5b0217905550505062000441565b8280546200013d9062000393565b90600052602060002090601f016020900481019282620001615760008555620001ad565b82601f106200017c57805160ff1916838001178555620001ad565b82800160010185558215620001ad579182015b82811115620001ac5782518255916020019190600101906200018f565b5b509050620001bc9190620001c0565b5090565b5b80821115620001db576000816000905550600101620001c1565b5090565b6000620001f6620001f084620002f6565b620002c2565b9050828152602081018484840111156200020f57600080fd5b6200021c8482856200035d565b509392505050565b600081519050620002358162000427565b92915050565b600082601f8301126200024d57600080fd5b81516200025f848260208601620001df565b91505092915050565b600080604083850312156200027c57600080fd5b600083015167ffffffffffffffff8111156200029757600080fd5b620002a5858286016200023b565b9250506020620002b88582860162000224565b9150509250929050565b6000604051905081810181811067ffffffffffffffff82111715620002ec57620002eb620003f8565b5b8060405250919050565b600067ffffffffffffffff821115620003145762000313620003f8565b5b601f19601f8301169050602081019050919050565b600062000336826200033d565b9050919050565b600073ffffffffffffffffffffffffffffffffffffffff82169050919050565b60005b838110156200037d57808201518184015260208101905062000360565b838111156200038d576000848401525b50505050565b60006002820490506001821680620003ac57607f821691505b60208210811415620003c357620003c2620003c9565b5b50919050565b7f4e487b7100000000000000000000000000000000000000000000000000000000600052602260045260246000fd5b7f4e487b7100000000000000000000000000000000000000000000000000000000600052604160045260246000fd5b620004328162000329565b81146200043e57600080fd5b50565b61314e80620004516000396000f3fe608060405234801561001057600080fd5b50600436106101005760003560e01c80635f5300ff11610097578063ad72202b11610066578063ad72202b14610264578063b92239461461026e578063dfbf53ae1461028d578063f6fd7fde146102ac57610100565b80635f5300ff146101d95780638f58d353146101f757806398c81bbf14610215578063a3ec138d1461023357610100565b8063285ad937116100d3578063285ad937146101795780633817e347146101975780633e858923146101b35780634c0a6af0146101cf57610100565b80630d15fd771461010557806312f9d54f1461012357806313f35c1c1461013f5780631d4dd4031461015b575b600080fd5b61010d6102dd565b60405161011a9190612b48565b60405180910390f35b61013d60048036038101906101389190612175565b6102f3565b005b610159600480360381019061015491906121b6565b610502565b005b6101636108c2565b604051610170919061296d565b60405180910390f35b610181610950565b60405161018e91906128d1565b60405180910390f35b6101b160048036038101906101ac9190612220565b610976565b005b6101cd60048036038101906101c891906121f7565b610eb7565b005b6101d7611386565b005b6101e16114f6565b6040516101ee9190612b48565b60405180910390f35b6101ff61150c565b60405161020c9190612952565b60405180910390f35b61021d61151f565b60405161022a9190612930565b60405180910390f35b61024d6004803603810190610248919061214c565b611636565b60405161025b92919061298f565b60405180910390f35b61026c6116ef565b005b61027661185f565b6040516102849291906129bf565b60405180910390f35b610295611bec565b6040516102a39291906129bf565b60405180910390f35b6102c660048036038101906102c1919061228c565b611c96565b6040516102d49291906129bf565b60405180910390f35b600560049054906101000a900463ffffffff1681565b600560089054906101000a900473ffffffffffffffffffffffffffffffffffffffff1673ffffffffffffffffffffffffffffffffffffffff163373ffffffffffffffffffffffffffffffffffffffff161461034d57600080fd5b6000806003811115610388577f4e487b7100000000000000000000000000000000000000000000000000000000600052602160045260246000fd5b600760009054906101000a900460ff1660038111156103d0577f4e487b7100000000000000000000000000000000000000000000000000000000600052602160045260246000fd5b146103da57600080fd5b60005b82518110156104c6576000604051806040016040528085848151811061042c577f4e487b7100000000000000000000000000000000000000000000000000000000600052603260045260246000fd5b60200260200101518152602001600063ffffffff1681525090806001815401808255809150506001900390600052602060002090600202016000909190919091506000820151816000019080519060200190610489929190611e28565b5060208201518160010160006101000a81548163ffffffff021916908363ffffffff160217905550505080806104be90612f3e565b9150506103dd565b507f77dee649aae3f16c359de4348be23b2c17a332472904177ed5076133d1bf2556826040516104f691906128ec565b60405180910390a15050565b600560089054906101000a900473ffffffffffffffffffffffffffffffffffffffff1673ffffffffffffffffffffffffffffffffffffffff163373ffffffffffffffffffffffffffffffffffffffff161461055c57600080fd5b6000806003811115610597577f4e487b7100000000000000000000000000000000000000000000000000000000600052602160045260246000fd5b600760009054906101000a900460ff1660038111156105df577f4e487b7100000000000000000000000000000000000000000000000000000000600052602160045260246000fd5b146105e957600080fd5b60005b8251811015610886576000838281518110610630577f4e487b7100000000000000000000000000000000000000000000000000000000600052603260045260246000fd5b60200260200101516020015151141561067e576040517f08c379a000000000000000000000000000000000000000000000000000000000815260040161067590612a28565b60405180910390fd5b6000600460008584815181106106bd577f4e487b7100000000000000000000000000000000000000000000000000000000600052603260045260246000fd5b60200260200101516000015173ffffffffffffffffffffffffffffffffffffffff1673ffffffffffffffffffffffffffffffffffffffff168152602001908152602001600020600001805461071190612f0c565b905014610753576040517f08c379a000000000000000000000000000000000000000000000000000000000815260040161074a90612b28565b60405180910390fd5b82818151811061078c577f4e487b7100000000000000000000000000000000000000000000000000000000600052603260045260246000fd5b602002602001015160200151600460008584815181106107d5577f4e487b7100000000000000000000000000000000000000000000000000000000600052603260045260246000fd5b60200260200101516000015173ffffffffffffffffffffffffffffffffffffffff1673ffffffffffffffffffffffffffffffffffffffff1681526020019081526020016000206000019080519060200190610831929190611e28565b506005600081819054906101000a900463ffffffff168092919061085490612f87565b91906101000a81548163ffffffff021916908363ffffffff16021790555050808061087e90612f3e565b9150506105ec565b507f52c6c7b24d93141036bc6e22785c0476e569db2cb6aeef78036f3916457300e1826040516108b6919061290e565b60405180910390a15050565b600680546108cf90612f0c565b80601f01602080910402602001604051908101604052809291908181526020018280546108fb90612f0c565b80156109485780601f1061091d57610100808354040283529160200191610948565b820191906000526020600020905b81548152906001019060200180831161092b57829003601f168201915b505050505081565b600560089054906101000a900473ffffffffffffffffffffffffffffffffffffffff1681565b60028060038111156109b1577f4e487b7100000000000000000000000000000000000000000000000000000000600052602160045260246000fd5b600760009054906101000a900460ff1660038111156109f9577f4e487b7100000000000000000000000000000000000000000000000000000000600052602160045260246000fd5b14610a0357600080fd5b600082604051602001610a1691906128ba565b6040516020818303038152906040528051906020012090503373ffffffffffffffffffffffffffffffffffffffff166003600083815260200190815260200160002060000160009054906101000a900473ffffffffffffffffffffffffffffffffffffffff1673ffffffffffffffffffffffffffffffffffffffff1614610ad2576040517f08c379a0000000000000000000000000000000000000000000000000000000008152600401610ac990612a68565b60405180910390fd5b60006001811115610b0c577f4e487b7100000000000000000000000000000000000000000000000000000000600052602160045260246000fd5b6003600083815260200190815260200160002060000160149054906101000a900460ff166001811115610b68577f4e487b7100000000000000000000000000000000000000000000000000000000600052602160045260246000fd5b14610ba8576040517f08c379a0000000000000000000000000000000000000000000000000000000008152600401610b9f90612aa8565b60405180910390fd5b6000849050600084905060005b82518160ff161015610ce657818160ff1681518110610bfd577f4e487b7100000000000000000000000000000000000000000000000000000000600052603260045260246000fd5b602001015160f81c60f81b7effffffffffffffffffffffffffffffffffffffffffffffffffffffffffffff1916838260ff1681518110610c66577f4e487b7100000000000000000000000000000000000000000000000000000000600052603260045260246000fd5b602001015160f81c60f81b7effffffffffffffffffffffffffffffffffffffffffffffffffffffffffffff191614610cd3576040517f08c379a0000000000000000000000000000000000000000000000000000000008152600401610cca90612a48565b60405180910390fd5b8080610cde90612fb4565b915050610bb5565b506000610cf287611d62565b9050600160008260ff1681548110610d33577f4e487b7100000000000000000000000000000000000000000000000000000000600052603260045260246000fd5b906000526020600020906002020160010160008282829054906101000a900463ffffffff16610d629190612d55565b92506101000a81548163ffffffff021916908363ffffffff1602179055506000600460003373ffffffffffffffffffffffffffffffffffffffff1673ffffffffffffffffffffffffffffffffffffffff168152602001908152602001600020905060028160010160006101000a81548160ff02191690836002811115610e11577f4e487b7100000000000000000000000000000000000000000000000000000000600052602160045260246000fd5b0217905550600180811115610e4f577f4e487b7100000000000000000000000000000000000000000000000000000000600052602160045260246000fd5b6003600087815260200190815260200160002060000160149054906101000a900460ff166001811115610eab577f4e487b7100000000000000000000000000000000000000000000000000000000600052602160045260246000fd5b50505050505050505050565b6001806003811115610ef2577f4e487b7100000000000000000000000000000000000000000000000000000000600052602160045260246000fd5b600760009054906101000a900460ff166003811115610f3a577f4e487b7100000000000000000000000000000000000000000000000000000000600052602160045260246000fd5b14610f4457600080fd5b6000600460003373ffffffffffffffffffffffffffffffffffffffff1673ffffffffffffffffffffffffffffffffffffffff16815260200190815260200160002090506000816000018054610f9890612f0c565b90501415610fdb576040517f08c379a0000000000000000000000000000000000000000000000000000000008152600401610fd290612ac8565b60405180910390fd5b60006002811115611015577f4e487b7100000000000000000000000000000000000000000000000000000000600052602160045260246000fd5b8160010160009054906101000a900460ff16600281111561105f577f4e487b7100000000000000000000000000000000000000000000000000000000600052602160045260246000fd5b1461109f576040517f08c379a000000000000000000000000000000000000000000000000000000000815260040161109690612a08565b60405180910390fd5b600073ffffffffffffffffffffffffffffffffffffffff166003600085815260200190815260200160002060000160009054906101000a900473ffffffffffffffffffffffffffffffffffffffff1673ffffffffffffffffffffffffffffffffffffffff1614611144576040517f08c379a000000000000000000000000000000000000000000000000000000000815260040161113b90612a88565b60405180910390fd5b61114c611eae565b33816000019073ffffffffffffffffffffffffffffffffffffffff16908173ffffffffffffffffffffffffffffffffffffffff16815250506000816020019060018111156111c3577f4e487b7100000000000000000000000000000000000000000000000000000000600052602160045260246000fd5b908160018111156111fd577f4e487b7100000000000000000000000000000000000000000000000000000000600052602160045260246000fd5b81525050806003600086815260200190815260200160002060008201518160000160006101000a81548173ffffffffffffffffffffffffffffffffffffffff021916908373ffffffffffffffffffffffffffffffffffffffff16021790555060208201518160000160146101000a81548160ff021916908360018111156112ad577f4e487b7100000000000000000000000000000000000000000000000000000000600052602160045260246000fd5b021790555090505060018260010160006101000a81548160ff02191690836002811115611303577f4e487b7100000000000000000000000000000000000000000000000000000000600052602160045260246000fd5b02179055506005600481819054906101000a900463ffffffff168092919061132a90612f87565b91906101000a81548163ffffffff021916908363ffffffff160217905550507f31e6286c8ecb5d48a59917fa389f0c011812ddd8330b8c71c185d21b19b846fa846040516113789190612ae8565b60405180910390a150505050565b600560089054906101000a900473ffffffffffffffffffffffffffffffffffffffff1673ffffffffffffffffffffffffffffffffffffffff163373ffffffffffffffffffffffffffffffffffffffff16146113e057600080fd5b600080600381111561141b577f4e487b7100000000000000000000000000000000000000000000000000000000600052602160045260246000fd5b600760009054906101000a900460ff166003811115611463577f4e487b7100000000000000000000000000000000000000000000000000000000600052602160045260246000fd5b1461146d57600080fd5b6001600760006101000a81548160ff021916908360038111156114b9577f4e487b7100000000000000000000000000000000000000000000000000000000600052602160045260246000fd5b02179055507f0d6a0e72f1f57a45518382c31c3d7d499a3e45d95fb4caddb0372bd448e7e5b06040516114eb906129ef565b60405180910390a150565b600560009054906101000a900463ffffffff1681565b600760009054906101000a900460ff1681565b60606000805480602002602001604051908101604052809291908181526020016000905b8282101561162d578382906000526020600020906002020160405180604001604052908160008201805461157690612f0c565b80601f01602080910402602001604051908101604052809291908181526020018280546115a290612f0c565b80156115ef5780601f106115c4576101008083540402835291602001916115ef565b820191906000526020600020905b8154815290600101906020018083116115d257829003601f168201915b505050505081526020016001820160009054906101000a900463ffffffff1663ffffffff1663ffffffff168152505081526020019060010190611543565b50505050905090565b600460205280600052604060002060009150905080600001805461165990612f0c565b80601f016020809104026020016040519081016040528092919081815260200182805461168590612f0c565b80156116d25780601f106116a7576101008083540402835291602001916116d2565b820191906000526020600020905b8154815290600101906020018083116116b557829003601f168201915b5050505050908060010160009054906101000a900460ff16905082565b600560089054906101000a900473ffffffffffffffffffffffffffffffffffffffff1673ffffffffffffffffffffffffffffffffffffffff163373ffffffffffffffffffffffffffffffffffffffff161461174957600080fd5b6001806003811115611784577f4e487b7100000000000000000000000000000000000000000000000000000000600052602160045260246000fd5b600760009054906101000a900460ff1660038111156117cc577f4e487b7100000000000000000000000000000000000000000000000000000000600052602160045260246000fd5b146117d657600080fd5b6002600760006101000a81548160ff02191690836003811115611822577f4e487b7100000000000000000000000000000000000000000000000000000000600052602160045260246000fd5b02179055507f8e8f5aee9431ee3cdd3482144e1a06dbb60dfca779dbb69ff38677931f948ff360405161185490612b0f565b60405180910390a150565b60606000600560089054906101000a900473ffffffffffffffffffffffffffffffffffffffff1673ffffffffffffffffffffffffffffffffffffffff163373ffffffffffffffffffffffffffffffffffffffff16146118bd57600080fd5b60028060038111156118f8577f4e487b7100000000000000000000000000000000000000000000000000000000600052602160045260246000fd5b600760009054906101000a900460ff166003811115611940577f4e487b7100000000000000000000000000000000000000000000000000000000600052602160045260246000fd5b1461194a57600080fd5b60008060005b600080549050811015611a41578263ffffffff166000828154811061199e577f4e487b7100000000000000000000000000000000000000000000000000000000600052603260045260246000fd5b906000526020600020906002020160010160009054906101000a900463ffffffff1663ffffffff161115611a2e5760008181548110611a06577f4e487b7100000000000000000000000000000000000000000000000000000000600052603260045260246000fd5b906000526020600020906002020160010160009054906101000a900463ffffffff1692508091505b8080611a3990612f3e565b915050611950565b5060008181548110611a7c577f4e487b7100000000000000000000000000000000000000000000000000000000600052603260045260246000fd5b90600052602060002090600202016000018054611a9890612f0c565b80601f0160208091040260200160405190810160405280929190818152602001828054611ac490612f0c565b8015611b115780601f10611ae657610100808354040283529160200191611b11565b820191906000526020600020905b815481529060010190602001808311611af457829003601f168201915b505050505094508460016000019080519060200190611b31929190611e28565b50816001800160006101000a81548163ffffffff021916908363ffffffff1602179055506003600760006101000a81548160ff02191690836003811115611ba1577f4e487b7100000000000000000000000000000000000000000000000000000000600052602160045260246000fd5b02179055507f2a7e354b64c657742b73fe53ae41272be152db4a043264298a57cc6a9f7c44638583604051611bd79291906129bf565b60405180910390a18482945094505050509091565b6001806000018054611bfd90612f0c565b80601f0160208091040260200160405190810160405280929190818152602001828054611c2990612f0c565b8015611c765780601f10611c4b57610100808354040283529160200191611c76565b820191906000526020600020905b815481529060010190602001808311611c5957829003601f168201915b5050505050908060010160009054906101000a900463ffffffff16905082565b60008181548110611ca657600080fd5b9060005260206000209060020201600091509050806000018054611cc990612f0c565b80601f0160208091040260200160405190810160405280929190818152602001828054611cf590612f0c565b8015611d425780601f10611d1757610100808354040283529160200191611d42565b820191906000526020600020905b815481529060010190602001808311611d2557829003601f168201915b5050505050908060010160009054906101000a900463ffffffff16905082565b6000808290506000809250600090505b8151811015611e21576000828281518110611db6577f4e487b7100000000000000000000000000000000000000000000000000000000600052603260045260246000fd5b602001015160f81c60f81b60f81c905060308160ff1610158015611dde575060398160ff1611155b15611e0d57603081611df09190612de9565b60ff16600a85611e009190612d8f565b611e0a9190612cff565b93505b508080611e1990612f3e565b915050611d72565b5050919050565b828054611e3490612f0c565b90600052602060002090601f016020900481019282611e565760008555611e9d565b82601f10611e6f57805160ff1916838001178555611e9d565b82800160010185558215611e9d579182015b82811115611e9c578251825591602001919060010190611e81565b5b509050611eaa9190611f16565b5090565b6040518060400160405280600073ffffffffffffffffffffffffffffffffffffffff16815260200160006001811115611f10577f4e487b7100000000000000000000000000000000000000000000000000000000600052602160045260246000fd5b81525090565b5b80821115611f2f576000816000905550600101611f17565b5090565b6000611f46611f4184612b94565b612b63565b9050808382526020820190508260005b85811015611f865781358501611f6c88826120a9565b845260208401935060208301925050600181019050611f56565b5050509392505050565b6000611fa3611f9e84612bc0565b612b63565b9050808382526020820190508260005b85811015611fe35781358501611fc988826120d3565b845260208401935060208301925050600181019050611fb3565b5050509392505050565b6000612000611ffb84612bec565b612b63565b90508281526020810184848401111561201857600080fd5b612023848285612eca565b509392505050565b60008135905061203a816130d3565b92915050565b600082601f83011261205157600080fd5b8135612061848260208601611f33565b91505092915050565b600082601f83011261207b57600080fd5b813561208b848260208601611f90565b91505092915050565b6000813590506120a3816130ea565b92915050565b600082601f8301126120ba57600080fd5b81356120ca848260208601611fed565b91505092915050565b6000604082840312156120e557600080fd5b6120ef6040612b63565b905060006120ff8482850161202b565b600083015250602082013567ffffffffffffffff81111561211f57600080fd5b61212b848285016120a9565b60208301525092915050565b60008135905061214681613101565b92915050565b60006020828403121561215e57600080fd5b600061216c8482850161202b565b91505092915050565b60006020828403121561218757600080fd5b600082013567ffffffffffffffff8111156121a157600080fd5b6121ad84828501612040565b91505092915050565b6000602082840312156121c857600080fd5b600082013567ffffffffffffffff8111156121e257600080fd5b6121ee8482850161206a565b91505092915050565b60006020828403121561220957600080fd5b600061221784828501612094565b91505092915050565b6000806040838503121561223357600080fd5b600083013567ffffffffffffffff81111561224d57600080fd5b612259858286016120a9565b925050602083013567ffffffffffffffff81111561227657600080fd5b612282858286016120a9565b9150509250929050565b60006020828403121561229e57600080fd5b60006122ac84828501612137565b91505092915050565b60006122c1838361249b565b905092915050565b60006122d58383612822565b905092915050565b60006122e9838361285f565b905092915050565b6122fa81612e1d565b82525050565b61230981612e1d565b82525050565b600061231a82612c4c565b6123248185612c9f565b93508360208202850161233685612c1c565b8060005b85811015612372578484038952815161235385826122b5565b945061235e83612c78565b925060208a0199505060018101905061233a565b50829750879550505050505092915050565b600061238f82612c57565b6123998185612cb0565b9350836020820285016123ab85612c2c565b8060005b858110156123e757848403895281516123c885826122c9565b94506123d383612c85565b925060208a019950506001810190506123af565b50829750879550505050505092915050565b600061240482612c62565b61240e8185612cc1565b93508360208202850161242085612c3c565b8060005b8581101561245c578484038952815161243d85826122dd565b945061244883612c92565b925060208a01995050600181019050612424565b50829750879550505050505092915050565b61247781612e2f565b82525050565b61248681612ea6565b82525050565b61249581612eb8565b82525050565b60006124a682612c6d565b6124b08185612cd2565b93506124c0818560208601612ed9565b6124c98161309a565b840191505092915050565b60006124df82612c6d565b6124e98185612ce3565b93506124f9818560208601612ed9565b6125028161309a565b840191505092915050565b600061251882612c6d565b6125228185612cf4565b9350612532818560208601612ed9565b80840191505092915050565b7f566f74696e672068617320737461727465640000000000000000000000000000815250565b6000612571600e83612ce3565b91507f416c726561647920766f7465642e0000000000000000000000000000000000006000830152602082019050919050565b60006125b1600d83612ce3565b91507f456e7465722061206e616d6521000000000000000000000000000000000000006000830152602082019050919050565b60006125f1602a83612ce3565b91507f596f75722063686f696365206e756d62657220646f65736e2774206d6174636860008301527f20796f757220766f7465000000000000000000000000000000000000000000006020830152604082019050919050565b6000612657602683612ce3565b91507f5468697320766f746520646f65736e2774206578697374206f722069736e277460008301527f20796f75727300000000000000000000000000000000000000000000000000006020830152604082019050919050565b60006126bd602e83612ce3565b91507f546865726520616c726561647920657869737473206120766f7465207769746860008301527f20746869732070617373776f72640000000000000000000000000000000000006020830152604082019050919050565b6000612723601e83612ce3565b91507f5468697320766f74652077617320616c72656164792072657665616c656400006000830152602082019050919050565b6000612763601683612ce3565b91507f41646472657373206e6f742072656769737465726564000000000000000000006000830152602082019050919050565b7f566f746520636f6d6d6974746564207769746820686173682000000000000000815250565b7f506c656173652072657665616c20796f757220766f746573206e6f7700000000815250565b60006127ef601983612ce3565b91507f566f74657220616c7265616479207265676973746572656421000000000000006000830152602082019050919050565b600060408301600083015161283a60008601826122f1565b5060208301518482036020860152612852828261249b565b9150508091505092915050565b6000604083016000830151848203600086015261287c828261249b565b9150506020830151612891602086018261289c565b508091505092915050565b6128a581612e89565b82525050565b6128b481612e89565b82525050565b60006128c6828461250d565b915081905092915050565b60006020820190506128e66000830184612300565b92915050565b60006020820190508181036000830152612906818461230f565b905092915050565b600060208201905081810360008301526129288184612384565b905092915050565b6000602082019050818103600083015261294a81846123f9565b905092915050565b6000602082019050612967600083018461247d565b92915050565b6000602082019050818103600083015261298781846124d4565b905092915050565b600060408201905081810360008301526129a981856124d4565b90506129b8602083018461248c565b9392505050565b600060408201905081810360008301526129d981856124d4565b90506129e860208301846128ab565b9392505050565b6000602082019050612a036000830161253e565b919050565b60006020820190508181036000830152612a2181612564565b9050919050565b60006020820190508181036000830152612a41816125a4565b9050919050565b60006020820190508181036000830152612a61816125e4565b9050919050565b60006020820190508181036000830152612a818161264a565b9050919050565b60006020820190508181036000830152612aa1816126b0565b9050919050565b60006020820190508181036000830152612ac181612716565b9050919050565b60006020820190508181036000830152612ae181612756565b9050919050565b6000604082019050612afc60008301612796565b612b09602083018461246e565b92915050565b6000602082019050612b23600083016127bc565b919050565b60006020820190508181036000830152612b41816127e2565b9050919050565b6000602082019050612b5d60008301846128ab565b92915050565b6000604051905081810181811067ffffffffffffffff82111715612b8a57612b8961306b565b5b8060405250919050565b600067ffffffffffffffff821115612baf57612bae61306b565b5b602082029050602081019050919050565b600067ffffffffffffffff821115612bdb57612bda61306b565b5b602082029050602081019050919050565b600067ffffffffffffffff821115612c0757612c0661306b565b5b601f19601f8301169050602081019050919050565b6000819050602082019050919050565b6000819050602082019050919050565b6000819050602082019050919050565b600081519050919050565b600081519050919050565b600081519050919050565b600081519050919050565b6000602082019050919050565b6000602082019050919050565b6000602082019050919050565b600082825260208201905092915050565b600082825260208201905092915050565b600082825260208201905092915050565b600082825260208201905092915050565b600082825260208201905092915050565b600081905092915050565b6000612d0a82612e7f565b9150612d1583612e7f565b9250827fffffffffffffffffffffffffffffffffffffffffffffffffffffffffffffffff03821115612d4a57612d49612fde565b5b828201905092915050565b6000612d6082612e89565b9150612d6b83612e89565b92508263ffffffff03821115612d8457612d83612fde565b5b828201905092915050565b6000612d9a82612e7f565b9150612da583612e7f565b9250817fffffffffffffffffffffffffffffffffffffffffffffffffffffffffffffffff0483118215151615612dde57612ddd612fde565b5b828202905092915050565b6000612df482612e99565b9150612dff83612e99565b925082821015612e1257612e11612fde565b5b828203905092915050565b6000612e2882612e5f565b9050919050565b6000819050919050565b6000819050612e47826130ab565b919050565b6000819050612e5a826130bf565b919050565b600073ffffffffffffffffffffffffffffffffffffffff82169050919050565b6000819050919050565b600063ffffffff82169050919050565b600060ff82169050919050565b6000612eb182612e39565b9050919050565b6000612ec382612e4c565b9050919050565b82818337600083830152505050565b60005b83811015612ef7578082015181840152602081019050612edc565b83811115612f06576000848401525b50505050565b60006002820490506001821680612f2457607f821691505b60208210811415612f3857612f3761303c565b5b50919050565b6000612f4982612e7f565b91507fffffffffffffffffffffffffffffffffffffffffffffffffffffffffffffffff821415612f7c57612f7b612fde565b5b600182019050919050565b6000612f9282612e89565b915063ffffffff821415612fa957612fa8612fde565b5b600182019050919050565b6000612fbf82612e99565b915060ff821415612fd357612fd2612fde565b5b600182019050919050565b7f4e487b7100000000000000000000000000000000000000000000000000000000600052601160045260246000fd5b7f4e487b7100000000000000000000000000000000000000000000000000000000600052602160045260246000fd5b7f4e487b7100000000000000000000000000000000000000000000000000000000600052602260045260246000fd5b7f4e487b7100000000000000000000000000000000000000000000000000000000600052604160045260246000fd5b6000601f19601f8301169050919050565b600481106130bc576130bb61300d565b5b50565b600381106130d0576130cf61300d565b5b50565b6130dc81612e1d565b81146130e757600080fd5b50565b6130f381612e2f565b81146130fe57600080fd5b50565b61310a81612e7f565b811461311557600080fd5b5056fea2646970667358221220092fd7aba2369234110a042a3821c2d685164c6189aac175e05d394a0570b57c64736f6c63430008000033a26469706673582212201a9ea0b29208e1a43bc5bc0423850cf124d7bc73ca3d6e65a0e893d7fc78370e64736f6c63430008000033",
  "immutableReferences": {},
  "source": "// SPDX-License-Identifier: MIT\npragma solidity ^0.8.0;\n\nimport \"./Poll.sol\";\n\ncontract PollFactory {\n  address[] public deployedPolls;\n  \n  event deployedContract(address _address);\n  \n  function createNewPoll(string memory _details) public returns(address) {\n    //Deploy a new poll\n    Poll newPoll = new Poll(_details, msg.sender);\n    //Get the address\n    address pollAddress = address(newPoll);\n    deployedPolls.push(pollAddress);\n    emit deployedContract(pollAddress);\n    return pollAddress;\n  }\n\n  function getPolls() public view returns(address[] memory) {\n      return deployedPolls;\n  }\n}\n",
  "sourcePath": "/Users/andreibudoi/Documents/Licenta/react-eth-commit-reveal-voting/contracts/PollFactory.sol",
  "compiler": {
    "name": "solc",
    "version": "0.8.0+commit.c7dfd78e.Emscripten.clang"
  },
  "schemaVersion": "3.3.4",
  "updatedAt": "2021-08-24T22:01:53.860Z",
  "networkType": "ethereum",
  "devdoc": {
    "kind": "dev",
    "methods": {},
    "version": 1
  },
  "userdoc": {
    "kind": "user",
    "methods": {},
    "version": 1
  }
}